{
  "contractName": "AssignmentRegistry",
  "abi": [
    {
      "inputs": [
        {
          "internalType": "uint256",
          "name": "",
          "type": "uint256"
        }
      ],
      "name": "assignments",
      "outputs": [
        {
          "internalType": "uint256",
          "name": "id",
          "type": "uint256"
        },
        {
          "internalType": "string",
          "name": "task_name",
          "type": "string"
        },
        {
          "internalType": "uint256",
          "name": "status",
          "type": "uint256"
        },
        {
          "internalType": "uint256",
          "name": "due",
          "type": "uint256"
        },
        {
          "internalType": "uint256",
          "name": "project",
          "type": "uint256"
        }
      ],
      "stateMutability": "view",
      "type": "function",
      "constant": true
    },
    {
      "inputs": [
        {
          "internalType": "uint256",
          "name": "_id",
          "type": "uint256"
        },
        {
          "internalType": "string",
          "name": "_task_name",
          "type": "string"
        },
        {
          "internalType": "uint256",
          "name": "_status",
          "type": "uint256"
        },
        {
          "internalType": "uint256",
          "name": "_due",
          "type": "uint256"
        },
        {
          "internalType": "uint256",
          "name": "_project",
          "type": "uint256"
        },
        {
          "internalType": "uint256[]",
          "name": "_assign",
          "type": "uint256[]"
        }
      ],
      "name": "addAssignment",
      "outputs": [],
      "stateMutability": "nonpayable",
      "type": "function"
    },
    {
      "inputs": [
        {
          "internalType": "uint256",
          "name": "_index",
          "type": "uint256"
        }
      ],
      "name": "getAssignment",
      "outputs": [
        {
          "components": [
            {
              "internalType": "uint256",
              "name": "id",
              "type": "uint256"
            },
            {
              "internalType": "string",
              "name": "task_name",
              "type": "string"
            },
            {
              "internalType": "uint256",
              "name": "status",
              "type": "uint256"
            },
            {
              "internalType": "uint256",
              "name": "due",
              "type": "uint256"
            },
            {
              "internalType": "uint256",
              "name": "project",
              "type": "uint256"
            },
            {
              "internalType": "uint256[]",
              "name": "assign",
              "type": "uint256[]"
            }
          ],
          "internalType": "struct AssignmentRegistry.Assignment",
          "name": "",
          "type": "tuple"
        }
      ],
      "stateMutability": "view",
      "type": "function",
      "constant": true
    },
    {
      "inputs": [],
      "name": "getAssignmentsCount",
      "outputs": [
        {
          "internalType": "uint256",
          "name": "",
          "type": "uint256"
        }
      ],
      "stateMutability": "view",
      "type": "function",
      "constant": true
    }
  ],
  "bytecode": "0x60808060405234601557610765908161001a8239f35b5f80fdfe6040608081526004361015610012575f80fd5b5f3560e01c80634e50c75c1461051b5780635e3879051461038857806379d6f0a2146100665763d931496014610046575f80fd5b34610062575f366003190112610062576020905f549051908152f35b5f80fd5b50346100625760c03660031901126100625760243567ffffffffffffffff8111610062573660238201121561006257806004013567ffffffffffffffff811161029757601f19908351926100c2602084601f8501160185610631565b818452366024838301011161006257815f92602460209301838701378401015260a4359067ffffffffffffffff821161006257366023830112156100625781600401359167ffffffffffffffff8311610297578260051b8551936101296020830186610631565b8452602460208501918301019136831161006257602401905b8282106103785750505083519361015885610615565b60043585526020850193845284016044358152606085019160643583526080860193608435855260a08701525f54600160401b811015610297578060016101a192015f55610592565b9590956103655786518655519081519167ffffffffffffffff8311610297576101cd60018801546105dd565b601f8111610327575b50602091601f84116001146102b657509180600596949260a09896945f926102ab575b50508160011b915f199060031b1c19161760018501555b5160028401555160038301555160048201550191015180519067ffffffffffffffff821161029757600160401b821161029757602090835483855580841061027c575b5001915f5260205f20915f5b82811061026857005b60019060208351930192818601550161025f565b61029190855f5284845f209182019101610719565b5f610253565b634e487b7160e01b5f52604160045260245ffd5b015190505f806101f9565b839291921691600188015f5260205f20925f5b81811061030f575092600192859260a09a989660059a9896106102f7575b505050811b016001850155610210565b01515f1960f88460031b161c191690555f80806102e7565b929360206001819287860151815501950193016102c9565b61035590600189015f5260205f20601f860160051c8101916020871061035b575b601f0160051c0190610719565b5f6101d6565b9091508190610348565b634e487b7160e01b5f525f60045260245ffd5b8135815260209182019101610142565b5034610062576020908160031936011261006257600435606060a083516103ae81610615565b5f815282868201525f858201525f838201525f608082015201525f548110156104e1576103db8391610592565b508251916103e883610615565b815483526001916103fb60018201610653565b90828501918252600281015495808601968752600382015490606087019182526005600484015493608089019485520193815194858782549182815201915f52875f20905f5b8181106104ce5750505061047f929161045e8760c0930388610631565b60a08a01968752825199888b5251888b0152519189015260e08801906106f5565b965160608701525160808601525160a085015251838503601f190160c0850152805180865294820194908201915f5b8281106104bb5785870386f35b83518752958101959281019284016104ae565b8254845292890192918a01918a01610441565b815162461bcd60e51b8152600481018490526013602482015272496e646578206f7574206f6620626f756e647360681b6044820152606490fd5b5034610062576020366003190112610062576004355f548110156100625761054290610592565b509081549061055360018401610653565b9260028101549060046003820154910154916105808451968796875260a0602088015260a08701906106f5565b93850152606084015260808301520390f35b5f548110156105c9576006905f8052027f290decd9548b62a8d60345a988386fc84ba6bc95484008f6362f93160ef3e56301905f90565b634e487b7160e01b5f52603260045260245ffd5b90600182811c9216801561060b575b60208310146105f757565b634e487b7160e01b5f52602260045260245ffd5b91607f16916105ec565b60c0810190811067ffffffffffffffff82111761029757604052565b90601f8019910116810190811067ffffffffffffffff82111761029757604052565b9060405191825f8254610665816105dd565b908184526020946001916001811690815f146106d35750600114610695575b50505061069392500383610631565b565b5f90815285812095935091905b8183106106bb57505061069393508201015f8080610684565b855488840185015294850194879450918301916106a2565b9250505061069394925060ff191682840152151560051b8201015f8080610684565b805180835260209291819084018484015e5f828201840152601f01601f1916010190565b818110610724575050565b5f815560010161071956fea2646970667358221220d78fcda814dbfacd7706fd4c8c983bb815111156fcb7b5d4f068c5c2e9dff28064736f6c63430008190033",
  "immutableReferences": {},
  "source": "// SPDX-License-Identifier: MIT\npragma solidity ^0.8.0;\n\ncontract AssignmentRegistry {\n    struct Assignment {\n        uint256 id;\n        string task_name;\n        uint256 status;\n        uint256 due;\n        uint256 project;\n        uint256[] assign;\n    }\n\n    Assignment[] public assignments;\n\n    function addAssignment(\n        uint256 _id,\n        string memory _task_name,\n        uint256 _status,\n        uint256 _due,\n        uint256 _project,\n        uint256[] memory _assign\n    ) public {\n        assignments.push(Assignment(_id, _task_name, _status, _due, _project, _assign));\n    }\n\n    function getAssignment(uint256 _index) public view returns (Assignment memory) {\n        require(_index < assignments.length, \"Index out of bounds\");\n        return assignments[_index];\n    }\n\n    function getAssignmentsCount() public view returns (uint256) {\n        return assignments.length;\n    }\n}\n",
  "sourcePath": "/Users/abhayrathi/Desktop/Developer/capstone_proj/blockchain-node/contracts/TaskList.sol",
  "compiler": {
    "name": "solc",
    "version": "0.8.25+commit.b61c2a91.Emscripten.clang"
  },
  "schemaVersion": "3.4.16",
  "updatedAt": "2024-05-08T15:06:10.597Z",
  "networkType": "ethereum",
  "devdoc": {
    "kind": "dev",
    "methods": {},
    "version": 1
  },
  "userdoc": {
    "kind": "user",
    "methods": {},
    "version": 1
  }
}