{
  "contractName": "MyContract",
  "abi": [
    {
      "anonymous": false,
      "inputs": [
        {
          "indexed": false,
          "internalType": "uint256",
          "name": "number",
          "type": "uint256"
        }
      ],
      "name": "NumberSet",
      "type": "event"
    },
    {
      "inputs": [],
      "name": "getNumber",
      "outputs": [
        {
          "internalType": "uint256",
          "name": "",
          "type": "uint256"
        }
      ],
      "stateMutability": "view",
      "type": "function",
      "constant": true
    },
    {
      "inputs": [
        {
          "internalType": "uint256",
          "name": "_number",
          "type": "uint256"
        }
      ],
      "name": "setNumber",
      "outputs": [],
      "stateMutability": "nonpayable",
      "type": "function"
    }
  ],
  "bytecode": "0x608080604052346100155760cc908161001b8239f35b600080fdfe6080806040526004361015601257600080fd5b600090813560e01c9081633fb5c1cb146051575063f2c9ecd814603457600080fd5b34604e5780600319360112604e5760209054604051908152f35b80fd5b905034609257602036600319011260925760207f9ec8254969d1974eac8c74afb0c03595b4ffe0a1d7ad8a7f82ed31b9c8542591916004358085558152a180f35b5080fdfea2646970667358221220596a4e57328422c91e9737096dba0b90fb4d2246dc8da08813c563de87cf36d064736f6c63430008110033",
  "immutableReferences": {},
  "source": "// SPDX-License-Identifier: MIT\npragma solidity ^0.8.0;\n\ncontract MyContract {\n    uint256 private myNumber;\n\n    event NumberSet(uint256 number);\n\n    function getNumber() public view returns (uint256) {\n        return myNumber;\n    }\n\n    function setNumber(uint256 _number) public {\n        myNumber = _number;\n        emit NumberSet(_number);\n    }\n}",
  "sourcePath": "/Users/abhayrathi/Desktop/Developer/capstone_proj/blockchain-node/contracts/MyContract.sol",
  "compiler": {
    "name": "solc",
    "version": "0.8.17+commit.8df45f5f.Emscripten.clang"
  },
  "schemaVersion": "3.4.16",
  "updatedAt": "2024-05-09T09:56:03.532Z",
  "networkType": "ethereum",
  "devdoc": {
    "kind": "dev",
    "methods": {},
    "version": 1
  },
  "userdoc": {
    "kind": "user",
    "methods": {},
    "version": 1
  }
}