{
  "contractName": "Organization",
  "abi": [
    {
      "inputs": [
        {
          "components": [
            {
              "internalType": "uint256",
              "name": "id",
              "type": "uint256"
            },
            {
              "internalType": "string",
              "name": "socialName",
              "type": "string"
            },
            {
              "internalType": "string",
              "name": "name",
              "type": "string"
            },
            {
              "internalType": "string",
              "name": "email",
              "type": "string"
            },
            {
              "internalType": "string",
              "name": "city",
              "type": "string"
            },
            {
              "internalType": "uint256",
              "name": "foundDate",
              "type": "uint256"
            }
          ],
          "internalType": "struct Organization.OrgData[]",
          "name": "_orgs",
          "type": "tuple[]"
        }
      ],
      "stateMutability": "nonpayable",
      "type": "constructor"
    },
    {
      "anonymous": false,
      "inputs": [
        {
          "indexed": true,
          "internalType": "uint256",
          "name": "id",
          "type": "uint256"
        },
        {
          "indexed": false,
          "internalType": "string",
          "name": "socialName",
          "type": "string"
        },
        {
          "indexed": false,
          "internalType": "string",
          "name": "name",
          "type": "string"
        },
        {
          "indexed": false,
          "internalType": "string",
          "name": "email",
          "type": "string"
        },
        {
          "indexed": false,
          "internalType": "string",
          "name": "city",
          "type": "string"
        },
        {
          "indexed": false,
          "internalType": "uint256",
          "name": "foundDate",
          "type": "uint256"
        }
      ],
      "name": "OrgAdded",
      "type": "event"
    },
    {
      "inputs": [],
      "name": "orgCount",
      "outputs": [
        {
          "internalType": "uint256",
          "name": "",
          "type": "uint256"
        }
      ],
      "stateMutability": "view",
      "type": "function",
      "constant": true
    },
    {
      "inputs": [
        {
          "internalType": "uint256",
          "name": "",
          "type": "uint256"
        }
      ],
      "name": "organizations",
      "outputs": [
        {
          "internalType": "uint256",
          "name": "id",
          "type": "uint256"
        },
        {
          "internalType": "string",
          "name": "socialName",
          "type": "string"
        },
        {
          "internalType": "string",
          "name": "name",
          "type": "string"
        },
        {
          "internalType": "string",
          "name": "email",
          "type": "string"
        },
        {
          "internalType": "string",
          "name": "city",
          "type": "string"
        },
        {
          "internalType": "uint256",
          "name": "foundDate",
          "type": "uint256"
        }
      ],
      "stateMutability": "view",
      "type": "function",
      "constant": true
    },
    {
      "inputs": [
        {
          "internalType": "uint256",
          "name": "_id",
          "type": "uint256"
        }
      ],
      "name": "getOrganization",
      "outputs": [
        {
          "components": [
            {
              "internalType": "uint256",
              "name": "id",
              "type": "uint256"
            },
            {
              "internalType": "string",
              "name": "socialName",
              "type": "string"
            },
            {
              "internalType": "string",
              "name": "name",
              "type": "string"
            },
            {
              "internalType": "string",
              "name": "email",
              "type": "string"
            },
            {
              "internalType": "string",
              "name": "city",
              "type": "string"
            },
            {
              "internalType": "uint256",
              "name": "foundDate",
              "type": "uint256"
            }
          ],
          "internalType": "struct Organization.OrgData",
          "name": "",
          "type": "tuple"
        }
      ],
      "stateMutability": "view",
      "type": "function",
      "constant": true
    },
    {
      "inputs": [],
      "name": "getOrgCount",
      "outputs": [
        {
          "internalType": "uint256",
          "name": "",
          "type": "uint256"
        }
      ],
      "stateMutability": "view",
      "type": "function",
      "constant": true
    }
  ],
  "bytecode": "0x608060405234620008975762000e1580380390816200001e81620008b1565b9182396020818381010312620008975780516001600160401b0381116200089757828201601f828401011215620008975781810151926001600160401b03841162000491578360051b91602062000077818501620008b1565b8096815201908285016020858388010101116200089757602081860101915b6020858388010101831062000756576000875b80518210156200074657620000c060015462000953565b9182600155620000d1818362000979565b516000938452602084815260409094208151815593810151805160018601916001600160401b0382116200049157825490600182811c921680156200073b575b60208310146200057b5781601f849311620006e8575b50602090601f83116001146200067d5760009262000671575b50508160011b916000199060031b1c19161790555b6040810151805160028601916001600160401b0382116200049157825490600182811c9216801562000666575b60208310146200057b5781601f84931162000613575b50602090601f8311600114620005a8576000926200059c575b50508160011b916000199060031b1c19161790555b60608101518051906001600160401b03821162000491576003860154908160011c91600181161562000591575b60011660208310146200057b5781601f84931162000529575b50602090601f8311600114620004b357600092620004a7575b50508160011b916000199060031b1c19161760038501555b608081015180519094906001600160401b038111620004915760049081830154600181811c9116801562000486575b60208210146200047157601f811162000426575b506020601f8211600114620003af5781906200039c9798600092620003a3575b50508160011b916000199060031b1c191617908201555b600560a0809301519101557f27802933aca43a9367fb8586039e6123723f4cad07d77bd6d489d6b60fded50a600154916020620002f5858862000979565b51015190604062000307868962000979565b5101516200038d886200037e6060620003218a8462000979565b5101516200036f86620003468c60806200033c828962000979565b5101519662000979565b510151956200036060405199898b9a8b528a0190620009a4565b9088820360208a0152620009a4565b908682036040880152620009a4565b908482036060860152620009a4565b9060808301520390a262000953565b90620000a9565b015190508880620002a0565b82840160005260206000209760005b601f19841681106200040d57509782916200039c9899600194601f19811610620003f3575b505050811b0190820155620002b7565b015160001960f88460031b161c19169055888080620003e3565b828201518a5560019099019860209283019201620003be565b8284016000526020600020601f830160051c81016020841062000469575b601f830160051c820181106200045c57505062000280565b6000815560010162000444565b508062000444565b602283634e487b7160e01b6000525260246000fd5b90607f16906200026c565b634e487b7160e01b600052604160045260246000fd5b01519050868062000225565b91506003870160005260206000209160005b601f198516811062000510575090839291600194601f19811610620004f6575b505050811b0160038501556200023d565b015160001960f88460031b161c19169055868080620004e5565b81830151845560019093019260209283019201620004c5565b909150600387016000526020600020601f840160051c81016020851062000573575b601f830160051c82018110620005665750839291506200020c565b600081556001016200054b565b50806200054b565b634e487b7160e01b600052602260045260246000fd5b91607f1691620001f3565b015190508780620001b1565b6000858152602081209350601f198516905b818110620005fa5750908460019594939210620005e0575b505050811b019055620001c6565b015160001960f88460031b161c19169055878080620005d2565b82840151855560019094019360209384019301620005ba565b909150836000526020600020601f840160051c810191602085106200065b575b601f0160051c01905b8181106200064e578392915062000198565b600081556001016200063c565b909150819062000633565b91607f169162000182565b01519050878062000140565b6000858152602081209350601f198516905b818110620006cf5750908460019594939210620006b5575b505050811b01905562000155565b015160001960f88460031b161c19169055878080620006a7565b828401518555600190940193602093840193016200068f565b909150836000526020600020601f840160051c8101916020851062000730575b601f0160051c01905b81811062000723578392915062000127565b6000815560010162000711565b909150819062000708565b91607f169162000111565b6040516104499081620009cc8239f35b8251906001600160401b038211620008975760c0878401830186890103601f19011262000897576040519160c083016001600160401b038111848210176200089c57604090815288850182016020810151855201516001600160401b0381116200089757620007d2906020888b019184888d01010101620008fc565b6020840152606084890182018101516001600160401b0381116200089757896020620008089285898c85019401010101620008fc565b60408501528885018201608001516001600160401b03811162000897578960206200083d9285898c85019401010101620008fc565b90840152878401810160a00151916001600160401b038311620008975760209360c083620008798c88809881988c8f85019401010101620008fc565b6080840152878c0101015160a0820152815201930192905062000096565b600080fd5b60246000634e487b7160e01b81526041600452fd5b6040519190601f01601f191682016001600160401b038111838210176200049157604052565b60005b838110620008eb5750506000910152565b8181015183820152602001620008da565b81601f82011215620008975780516001600160401b03811162000491576200092e601f8201601f1916602001620008b1565b92818452602082840101116200089757620009509160208085019101620008d7565b90565b6000198114620009635760010190565b634e487b7160e01b600052601160045260246000fd5b80518210156200098e5760209160051b010190565b634e487b7160e01b600052603260045260246000fd5b90602091620009bf81518092818552858086019101620008d7565b601f01601f191601019056fe608060408181526004918236101561001657600080fd5b600090813560e01c90816323d26253146102aa575080634526f69014610124578063d8106690146101015763e792dd8a1461005057600080fd5b346100fe5760203660031901126100fe578190833581528060205220906100f48254926100e661008260018301610338565b956100d861009260028501610338565b9560056100ac6100a460038801610338565b948701610338565b950154966100cb82519a8b9a8b5260c060208c015260c08b01906102c6565b91898303908a01526102c6565b9086820360608801526102c6565b9084820360808601526102c6565b9060a08301520390f35b80fd5b5090346101205781600319360112610120576020906001549051908152f35b5080fd5b50903461012057602092836003193601126102a657815192813561014785610306565b8185528160a060609687898201528787820152878082015287608082015201526001548111158061029d575b1561025a579361023e8461022d61024f956102198a988760c09b60059952808b52209380519a8b9889966101a688610306565b805488526101b660018201610338565b9c88019c8d5260806101ed6101cd60028401610338565b97868b019889528c6101e160038601610338565b9b019a8b528301610338565b9b019a8b5201549a60a08d019b8c5282518e819f9e829f83525191015251918c015260e08b01906102c6565b9051601f1995868b840301908b01526102c6565b9051838883030160808901526102c6565b9151908583030160a08601526102c6565b905160c08301520390f35b835162461bcd60e51b8152808401879052601860248201527f496e76616c6964206f7267616e697a6174696f6e2049442e00000000000000006044820152606490fd5b50801515610173565b8280fd5b9050346101205781600319360112610120576020906001548152f35b919082519283825260005b8481106102f2575050826000602080949584010152601f8019910116010190565b6020818301810151848301820152016102d1565b60c0810190811067ffffffffffffffff82111761032257604052565b634e487b7160e01b600052604160045260246000fd5b9060405191600090805490600182811c91818416938415610409575b60209485851081146103f5578489529081156103d7575060011461039b575b50505050829003601f01601f1916820167ffffffffffffffff81118382101761032257604052565b909293506000528260002091836000935b8385106103c3575050505083010138808080610373565b8054888601830152930192849082016103ac565b60ff191688860152505050151560051b840101905038808080610373565b634e487b7160e01b87526022600452602487fd5b92607f169261035456fea2646970667358221220f13214d052a2ba1b3c4e0cfca7bfce6c4ba001a7160238db2c7ea34e00f3704864736f6c63430008110033",
  "immutableReferences": {},
  "source": "// SPDX-License-Identifier: MIT\npragma solidity ^0.8.0;\n\ncontract Organization {\n    struct OrgData {\n        uint256 id;\n        string socialName;\n        string name;\n        string email;\n        string city;\n        uint256 foundDate;\n    }\n\n    mapping(uint256 => OrgData) public organizations;\n    uint256 public orgCount;\n\n    event OrgAdded(uint256 indexed id, string socialName, string name, string email, string city, uint256 foundDate);\n\n    constructor(OrgData[] memory _orgs) {\n        for (uint256 i = 0; i < _orgs.length; i++) {\n            orgCount++;\n            organizations[orgCount] = _orgs[i];\n            emit OrgAdded(orgCount, _orgs[i].socialName, _orgs[i].name, _orgs[i].email, _orgs[i].city, _orgs[i].foundDate);\n        }\n    }\n\n    function getOrganization(uint256 _id) public view returns (OrgData memory) {\n        require(_id <= orgCount && _id > 0, \"Invalid organization ID.\");\n        return organizations[_id];\n    }\n\n    function getOrgCount() public view returns (uint256) {\n        return orgCount;\n    }\n}\n",
  "sourcePath": "/Users/abhayrathi/Desktop/Developer/capstone_proj/blockchain-node/contracts/Teams.sol",
  "compiler": {
    "name": "solc",
    "version": "0.8.17+commit.8df45f5f.Emscripten.clang"
  },
  "schemaVersion": "3.4.16",
  "updatedAt": "2024-05-09T09:56:03.545Z",
  "networkType": "ethereum",
  "devdoc": {
    "kind": "dev",
    "methods": {},
    "version": 1
  },
  "userdoc": {
    "kind": "user",
    "methods": {},
    "version": 1
  }
}