{
  "contractName": "TaskManager",
  "abi": [
    {
      "inputs": [
        {
          "components": [
            {
              "internalType": "uint256",
              "name": "id",
              "type": "uint256"
            },
            {
              "internalType": "string",
              "name": "taskSets",
              "type": "string"
            },
            {
              "internalType": "string",
              "name": "name",
              "type": "string"
            },
            {
              "internalType": "string",
              "name": "slug",
              "type": "string"
            },
            {
              "internalType": "uint256",
              "name": "efforts",
              "type": "uint256"
            },
            {
              "internalType": "uint8",
              "name": "status",
              "type": "uint8"
            },
            {
              "internalType": "string",
              "name": "deadLine",
              "type": "string"
            },
            {
              "internalType": "uint8",
              "name": "completePer",
              "type": "uint8"
            },
            {
              "internalType": "string",
              "name": "description",
              "type": "string"
            },
            {
              "internalType": "string",
              "name": "addDate",
              "type": "string"
            },
            {
              "internalType": "string",
              "name": "updDate",
              "type": "string"
            },
            {
              "internalType": "uint256",
              "name": "company",
              "type": "uint256"
            },
            {
              "internalType": "string",
              "name": "assignees",
              "type": "string"
            }
          ],
          "internalType": "struct TaskManager.Task[]",
          "name": "_tasks",
          "type": "tuple[]"
        }
      ],
      "stateMutability": "nonpayable",
      "type": "constructor"
    },
    {
      "anonymous": false,
      "inputs": [
        {
          "indexed": true,
          "internalType": "uint256",
          "name": "id",
          "type": "uint256"
        },
        {
          "indexed": false,
          "internalType": "string",
          "name": "taskSets",
          "type": "string"
        },
        {
          "indexed": false,
          "internalType": "string",
          "name": "name",
          "type": "string"
        },
        {
          "indexed": false,
          "internalType": "string",
          "name": "slug",
          "type": "string"
        },
        {
          "indexed": false,
          "internalType": "uint256",
          "name": "efforts",
          "type": "uint256"
        },
        {
          "indexed": false,
          "internalType": "uint8",
          "name": "status",
          "type": "uint8"
        },
        {
          "indexed": false,
          "internalType": "string",
          "name": "deadLine",
          "type": "string"
        },
        {
          "indexed": false,
          "internalType": "uint8",
          "name": "completePer",
          "type": "uint8"
        },
        {
          "indexed": false,
          "internalType": "string",
          "name": "description",
          "type": "string"
        },
        {
          "indexed": false,
          "internalType": "string",
          "name": "addDate",
          "type": "string"
        },
        {
          "indexed": false,
          "internalType": "string",
          "name": "updDate",
          "type": "string"
        },
        {
          "indexed": false,
          "internalType": "uint256",
          "name": "company",
          "type": "uint256"
        },
        {
          "indexed": false,
          "internalType": "string",
          "name": "assignees",
          "type": "string"
        }
      ],
      "name": "TaskAdded",
      "type": "event"
    },
    {
      "inputs": [],
      "name": "taskCount",
      "outputs": [
        {
          "internalType": "uint256",
          "name": "",
          "type": "uint256"
        }
      ],
      "stateMutability": "view",
      "type": "function",
      "constant": true
    },
    {
      "inputs": [
        {
          "internalType": "uint256",
          "name": "",
          "type": "uint256"
        }
      ],
      "name": "tasks",
      "outputs": [
        {
          "internalType": "uint256",
          "name": "id",
          "type": "uint256"
        },
        {
          "internalType": "string",
          "name": "taskSets",
          "type": "string"
        },
        {
          "internalType": "string",
          "name": "name",
          "type": "string"
        },
        {
          "internalType": "string",
          "name": "slug",
          "type": "string"
        },
        {
          "internalType": "uint256",
          "name": "efforts",
          "type": "uint256"
        },
        {
          "internalType": "uint8",
          "name": "status",
          "type": "uint8"
        },
        {
          "internalType": "string",
          "name": "deadLine",
          "type": "string"
        },
        {
          "internalType": "uint8",
          "name": "completePer",
          "type": "uint8"
        },
        {
          "internalType": "string",
          "name": "description",
          "type": "string"
        },
        {
          "internalType": "string",
          "name": "addDate",
          "type": "string"
        },
        {
          "internalType": "string",
          "name": "updDate",
          "type": "string"
        },
        {
          "internalType": "uint256",
          "name": "company",
          "type": "uint256"
        },
        {
          "internalType": "string",
          "name": "assignees",
          "type": "string"
        }
      ],
      "stateMutability": "view",
      "type": "function",
      "constant": true
    },
    {
      "inputs": [
        {
          "internalType": "uint256",
          "name": "_id",
          "type": "uint256"
        }
      ],
      "name": "getTask",
      "outputs": [
        {
          "components": [
            {
              "internalType": "uint256",
              "name": "id",
              "type": "uint256"
            },
            {
              "internalType": "string",
              "name": "taskSets",
              "type": "string"
            },
            {
              "internalType": "string",
              "name": "name",
              "type": "string"
            },
            {
              "internalType": "string",
              "name": "slug",
              "type": "string"
            },
            {
              "internalType": "uint256",
              "name": "efforts",
              "type": "uint256"
            },
            {
              "internalType": "uint8",
              "name": "status",
              "type": "uint8"
            },
            {
              "internalType": "string",
              "name": "deadLine",
              "type": "string"
            },
            {
              "internalType": "uint8",
              "name": "completePer",
              "type": "uint8"
            },
            {
              "internalType": "string",
              "name": "description",
              "type": "string"
            },
            {
              "internalType": "string",
              "name": "addDate",
              "type": "string"
            },
            {
              "internalType": "string",
              "name": "updDate",
              "type": "string"
            },
            {
              "internalType": "uint256",
              "name": "company",
              "type": "uint256"
            },
            {
              "internalType": "string",
              "name": "assignees",
              "type": "string"
            }
          ],
          "internalType": "struct TaskManager.Task",
          "name": "",
          "type": "tuple"
        }
      ],
      "stateMutability": "view",
      "type": "function",
      "constant": true
    },
    {
      "inputs": [],
      "name": "getTotalTasks",
      "outputs": [
        {
          "internalType": "uint256",
          "name": "",
          "type": "uint256"
        }
      ],
      "stateMutability": "view",
      "type": "function",
      "constant": true
    }
  ],
  "bytecode": "0x60806040523462000f8257620016db803803806200001d8162000f9c565b92833981019060208183031262000f82578051906001600160401b03821162000f8257019080601f8301121562000f82578151916001600160401b03831162000766578260051b6020806200007481840162000f9c565b8096815201918301019183831162000f825760208101915b83831062000d84578560005b815181101562000d7457620000af6001546200104d565b80600155620000bf828462001073565b516000918252602082815260409092208151815591810151805160018401916001600160401b0382116200076657825490600182811c9216801562000d69575b6020831014620007455781601f84931162000d16575b50602090601f831160011462000cab5760009262000c9f575b50508160011b916000199060031b1c19161790555b6040810151805160028401916001600160401b0382116200076657825490600182811c9216801562000c94575b6020831014620007455781601f84931162000c41575b50602090601f831160011462000bd65760009262000bca575b50508160011b916000199060031b1c19161790555b606081015180516001600160401b03811162000766576003840191825490600182811c9216801562000bbf575b6020831014620007455781601f84931162000b6c575b50602090601f831160011462000b015760009262000af5575b50508160011b916000199060031b1c19161790555b608081015160048301556005820160ff60a08301511660ff1982541617905560c081015180519060018060401b0382116200076657600684015490600182811c9216801562000aea575b6020831014620007455781601f84931162000a98575b50602090601f831160011462000a225760009262000a16575b50508160011b916000199060031b1c19161760068301555b6007820160ff60e08301511660ff1982541617905561010081015180519060018060401b0382116200076657600884015490600182811c9216801562000a0b575b6020831014620007455781601f849311620009b9575b50602090601f8311600114620009435760009262000937575b50508160011b916000199060031b1c19161760088301555b6101208101518051906001600160401b0382116200076657600984015490600182811c921680156200092c575b6020831014620007455781601f849311620008da575b50602090601f8311600114620008645760009262000858575b50508160011b916000199060031b1c19161760098301555b6101408101518051906001600160401b0382116200076657600a840154600181811c911680156200084d575b60208210146200074557601f811162000801575b50602090601f83116001146200078857610180939291600091836200077c575b50508160011b916000199060031b1c191617600a8401555b610160810151600b84015501518051906001600160401b0382116200076657600c830154600181811c911680156200075b575b60208210146200074557601f8111620006f9575b50602090601f83116001146200068457600c92916000918362000678575b50508160011b916000199060031b1c1916179101555b600154620004b4828462001073565b5160200151620004c5838562001073565b516040015190620004d7848662001073565b516060015184620004e9818862001073565b516080015181620004fb818a62001073565b5160a0015160ff169162000510828b62001073565b5160c0015162000521838c62001073565b5160e0015160ff169062000536848d62001073565b516101000151928c6200054a868262001073565b516101200151956200055c9162001073565b516101400151958d62000570898262001073565b51610160015198620005829162001073565b516101800151986040519b8c9b6101808d526101808d01620005a4916200109e565b8c810360208e0152620005b7916200109e565b8b810360408d0152620005ca916200109e565b9160608b015260808a015288810360a08a0152620005e8916200109e565b9060c088015286810360e088015262000601916200109e565b85810361010087015262000615916200109e565b84810361012086015262000629916200109e565b9061014084015282810361016084015262000644916200109e565b037e25361a241f0891259d7e777e5d5a945c91be45735a18c032f473ca189361d691a262000672906200104d565b62000098565b0151905086806200048f565b90600c840160005260206000209160005b601f1985168110620006e05750918391600193600c95601f19811610620006c6575b505050811b01910155620004a5565b015160001960f88460031b161c19169055868080620006b7565b8183015184556001909301926020928301920162000695565b600c84016000526020600020601f840160051c8101602085106200073d575b601f830160051c820181106200073057505062000471565b6000815560010162000718565b508062000718565b634e487b7160e01b600052602260045260246000fd5b90607f16906200045d565b634e487b7160e01b600052604160045260246000fd5b01519050878062000412565b90600a850160005260206000209160005b601f1985168110620007e857509183916001936101809695601f19811610620007ce575b505050811b01600a8401556200042a565b015160001960f88460031b161c19169055878080620007bd565b8183015184556001909301926020928301920162000799565b600a85016000526020600020601f840160051c81016020851062000845575b601f830160051c8201811062000838575050620003f2565b6000815560010162000820565b508062000820565b90607f1690620003de565b0151905086806200039a565b91506009850160005260206000209160005b601f1985168110620008c1575090839291600194601f19811610620008a7575b505050811b016009830155620003b2565b015160001960f88460031b161c1916905586808062000896565b8183015184556001909301926020928301920162000876565b909150600985016000526020600020601f840160051c81016020851062000924575b601f830160051c820181106200091757508392915062000381565b60008155600101620008fc565b5080620008fc565b91607f16916200036b565b01519050868062000326565b91506008850160005260206000209160005b601f1985168110620009a0575090839291600194601f1981161062000986575b505050811b0160088301556200033e565b015160001960f88460031b161c1916905586808062000975565b8183015184556001909301926020928301920162000955565b909150600885016000526020600020601f840160051c81016020851062000a03575b601f830160051c82018110620009f65750839291506200030d565b60008155600101620009db565b5080620009db565b91607f1691620002f7565b0151905086806200029e565b91506006850160005260206000209160005b601f198516811062000a7f575090839291600194601f1981161062000a65575b505050811b016006830155620002b6565b015160001960f88460031b161c1916905586808062000a54565b8183015184556001909301926020928301920162000a34565b909150600685016000526020600020601f840160051c81016020851062000ae2575b601f830160051c8201811062000ad557508392915062000285565b6000815560010162000aba565b508062000aba565b91607f16916200026f565b01519050878062000210565b6000858152602081209350601f198516905b81811062000b53575090846001959493921062000b39575b505050811b01905562000225565b015160001960f88460031b161c1916905587808062000b2b565b8284015185556001909401936020938401930162000b13565b909150836000526020600020601f840160051c8101916020851062000bb4575b601f0160051c01905b81811062000ba75783929150620001f7565b6000815560010162000b95565b909150819062000b8c565b91607f1691620001e1565b0151905087806200019f565b6000858152602081209350601f198516905b81811062000c28575090846001959493921062000c0e575b505050811b019055620001b4565b015160001960f88460031b161c1916905587808062000c00565b8284015185556001909401936020938401930162000be8565b909150836000526020600020601f840160051c8101916020851062000c89575b601f0160051c01905b81811062000c7c578392915062000186565b6000815560010162000c6a565b909150819062000c61565b91607f169162000170565b0151905087806200012e565b6000858152602081209350601f198516905b81811062000cfd575090846001959493921062000ce3575b505050811b01905562000143565b015160001960f88460031b161c1916905587808062000cd5565b8284015185556001909401936020938401930162000cbd565b909150836000526020600020601f840160051c8101916020851062000d5e575b601f0160051c01905b81811062000d51578392915062000115565b6000815560010162000d3f565b909150819062000d36565b91607f1691620000ff565b6040516106159081620010c68239f35b82516001600160401b03811162000f82578201906101a09081601f19848903011262000f82576040518281016001600160401b0381118282101762000f87576040908152602085015182528401516001600160401b03811162000f825788602062000df29287010162000fe7565b60208201526060848101519093906001600160401b03811162000f825789602062000e209288010162000fe7565b60408301526080858101519094906001600160401b03811162000f82578a602062000e4e9289010162000fe7565b9083015260a093848601519083015260c09362000e6d8587016200103e565b9083015260e0858101519094906001600160401b03811162000f82578a602062000e9a9289010162000fe7565b908301526101009362000eaf8587016200103e565b90830152610120858101519094906001600160401b03811162000f82578a602062000edd9289010162000fe7565b90830152610140858101519094906001600160401b03811162000f82578a602062000f0b9289010162000fe7565b90830152610160858101519094906001600160401b03811162000f82578a602062000f399289010162000fe7565b908301526101808581015194830194909452840151926001600160401b03841162000f825762000f728960208097968197010162000fe7565b908201528152019201916200008c565b600080fd5b60246000634e487b7160e01b81526041600452fd5b6040519190601f01601f191682016001600160401b038111838210176200076657604052565b60005b83811062000fd65750506000910152565b818101518382015260200162000fc5565b81601f8201121562000f825780516001600160401b038111620007665762001019601f8201601f191660200162000f9c565b928184526020828401011162000f82576200103b916020808501910162000fc2565b90565b519060ff8216820362000f8257565b60001981146200105d5760010190565b634e487b7160e01b600052601160045260246000fd5b8051821015620010885760209160051b010190565b634e487b7160e01b600052603260045260246000fd5b90602091620010b98151809281855285808601910162000fc2565b601f01601f191601019056fe6080806040526004908136101561001557600080fd5b600091823560e01c9182631d65e77e146101e7575081633c93b905146101c95781638d97767214610070575063b6cb58a51461005057600080fd5b3461006d578060031936011261006d576020600154604051908152f35b80fd5b823461006d57602036600319011261006d57813581528060205260409020908154906001830161009f90610504565b926100ac60028201610504565b916100b960038301610504565b90820154600583015460ff16906100d260068501610504565b600785015460ff16906100e760088701610504565b926100f460098801610504565b94610101600a8901610504565b96600b89015498600c0161011490610504565b996040519c8d9c8d528c6101a06020819201528d0161013291610491565b8c810360408e015261014391610491565b8b810360608d015261015491610491565b9160808b015260a08a015288810360c08a015261017091610491565b9060e088015286810361010088015261018891610491565b85810361012087015261019a91610491565b8481036101408601526101ac91610491565b906101608401528281036101808401526101c591610491565b0390f35b823461006d578060031936011261006d576020600154604051908152f35b9091503461048d57602036600319011261048d57606061018083359261020c816104d1565b85815282602082015282604082015282808201528560808201528560a08201528260c08201528560e082015282610100820152826101208201528261014082015285610160820152015260015481111580610484575b1561044d57600c604084610338936101c59652806020522060405193610287856104d1565b8154855261029760018301610504565b60208601526102a860028301610504565b60408601526102b960038301610504565b6060860152810154608085015260ff60058201541660a08501526102df60068201610504565b60c085015260ff60078201541660e08501526102fd60088201610504565b61010085015261030f60098201610504565b610120850152610321600a8201610504565b610140850152600b81015461016085015201610504565b610180820152604051918291602083528051602084015261018061042e6104166103fe6103d86103ab61039561037f60208901516101a060408d01526101c08c0190610491565b60408901518b8203601f190160608d0152610491565b60608801518a8203601f190160808c0152610491565b608087015160a08a015260ff60a08801511660c08a015260c0870151601f198a83030160e08b0152610491565b60ff60e087015116610100890152610100860151601f19898303016101208a0152610491565b610120850151878203601f1901610140890152610491565b610140840151868203601f1901610160880152610491565b61016083015185830152910151838203601f19016101a0850152610491565b60405162461bcd60e51b8152602081840152601060248201526f24b73b30b634b2103a30b9b59024a21760811b6044820152606490fd5b50801515610262565b8280fd5b919082519283825260005b8481106104bd575050826000602080949584010152601f8019910116010190565b60208183018101518483018201520161049c565b6101a0810190811067ffffffffffffffff8211176104ee57604052565b634e487b7160e01b600052604160045260246000fd5b9060405191600090805490600182811c918184169384156105d5575b60209485851081146105c1578489529081156105a35750600114610567575b50505050829003601f01601f1916820167ffffffffffffffff8111838210176104ee57604052565b909293506000528260002091836000935b83851061058f57505050508301013880808061053f565b805488860183015293019284908201610578565b60ff191688860152505050151560051b84010190503880808061053f565b634e487b7160e01b87526022600452602487fd5b92607f169261052056fea2646970667358221220360d023aa5a932fa9d86ff966e4ffec21a4438878502ef71f9b44962e7e4398764736f6c63430008110033",
  "immutableReferences": {},
  "source": "// SPDX-License-Identifier: MIT\npragma solidity ^0.8.0;\n\ncontract TaskManager {\n    struct Task {\n        uint256 id;\n        string taskSets;\n        string name;\n        string slug;\n        uint256 efforts;\n        uint8 status;\n        string deadLine;\n        uint8 completePer;\n        string description;\n        string addDate;\n        string updDate;\n        uint256 company;\n        string assignees;\n    }\n\n    mapping(uint256 => Task) public tasks;\n    uint256 public taskCount;\n\n    event TaskAdded(\n        uint256 indexed id,\n        string taskSets,\n        string name,\n        string slug,\n        uint256 efforts,\n        uint8 status,\n        string deadLine,\n        uint8 completePer,\n        string description,\n        string addDate,\n        string updDate,\n        uint256 company,\n        string assignees\n    );\n\n    constructor(Task[] memory _tasks) {\n        for (uint256 i = 0; i < _tasks.length; i++) {\n            taskCount++;\n            tasks[taskCount] = _tasks[i];\n            emit TaskAdded(\n                taskCount,\n                _tasks[i].taskSets,\n                _tasks[i].name,\n                _tasks[i].slug,\n                _tasks[i].efforts,\n                _tasks[i].status,\n                _tasks[i].deadLine,\n                _tasks[i].completePer,\n                _tasks[i].description,\n                _tasks[i].addDate,\n                _tasks[i].updDate,\n                _tasks[i].company,\n                _tasks[i].assignees\n            );\n        }\n    }\n\n    function getTask(uint256 _id) public view returns (Task memory) {\n        require(_id <= taskCount && _id > 0, \"Invalid task ID.\");\n        return tasks[_id];\n    }\n\n    function getTotalTasks() public view returns (uint256) {\n        return taskCount;\n    }\n}",
  "sourcePath": "/Users/abhayrathi/Desktop/Developer/capstone_proj/blockchain-node/contracts/Projects.sol",
  "compiler": {
    "name": "solc",
    "version": "0.8.17+commit.8df45f5f.Emscripten.clang"
  },
  "schemaVersion": "3.4.16",
  "updatedAt": "2024-05-09T09:56:03.542Z",
  "networkType": "ethereum",
  "devdoc": {
    "kind": "dev",
    "methods": {},
    "version": 1
  },
  "userdoc": {
    "kind": "user",
    "methods": {},
    "version": 1
  }
}