{
  "contractName": "TaskManagement",
  "abi": [
    {
      "inputs": [
        {
          "components": [
            {
              "internalType": "uint256",
              "name": "id",
              "type": "uint256"
            },
            {
              "internalType": "string",
              "name": "taskSet",
              "type": "string"
            },
            {
              "internalType": "string",
              "name": "name",
              "type": "string"
            },
            {
              "internalType": "string",
              "name": "slug",
              "type": "string"
            },
            {
              "internalType": "string",
              "name": "efforts",
              "type": "string"
            },
            {
              "internalType": "string",
              "name": "status",
              "type": "string"
            },
            {
              "internalType": "string",
              "name": "deadline",
              "type": "string"
            },
            {
              "internalType": "uint256",
              "name": "completePercentage",
              "type": "uint256"
            },
            {
              "internalType": "string",
              "name": "description",
              "type": "string"
            },
            {
              "internalType": "string",
              "name": "addDate",
              "type": "string"
            },
            {
              "internalType": "string",
              "name": "updateDate",
              "type": "string"
            },
            {
              "internalType": "uint256",
              "name": "company",
              "type": "uint256"
            },
            {
              "internalType": "uint256[]",
              "name": "assign",
              "type": "uint256[]"
            }
          ],
          "internalType": "struct TaskManagement.Task[]",
          "name": "_tasks",
          "type": "tuple[]"
        }
      ],
      "stateMutability": "nonpayable",
      "type": "constructor"
    },
    {
      "anonymous": false,
      "inputs": [
        {
          "indexed": true,
          "internalType": "uint256",
          "name": "id",
          "type": "uint256"
        },
        {
          "indexed": false,
          "internalType": "string",
          "name": "taskSet",
          "type": "string"
        },
        {
          "indexed": false,
          "internalType": "string",
          "name": "name",
          "type": "string"
        },
        {
          "indexed": false,
          "internalType": "string",
          "name": "slug",
          "type": "string"
        },
        {
          "indexed": false,
          "internalType": "string",
          "name": "efforts",
          "type": "string"
        },
        {
          "indexed": false,
          "internalType": "string",
          "name": "status",
          "type": "string"
        },
        {
          "indexed": false,
          "internalType": "string",
          "name": "deadline",
          "type": "string"
        },
        {
          "indexed": false,
          "internalType": "uint256",
          "name": "completePercentage",
          "type": "uint256"
        },
        {
          "indexed": false,
          "internalType": "string",
          "name": "description",
          "type": "string"
        },
        {
          "indexed": false,
          "internalType": "string",
          "name": "addDate",
          "type": "string"
        },
        {
          "indexed": false,
          "internalType": "string",
          "name": "updateDate",
          "type": "string"
        },
        {
          "indexed": false,
          "internalType": "uint256",
          "name": "company",
          "type": "uint256"
        },
        {
          "indexed": false,
          "internalType": "uint256[]",
          "name": "assign",
          "type": "uint256[]"
        }
      ],
      "name": "TaskAdded",
      "type": "event"
    },
    {
      "inputs": [],
      "name": "taskCount",
      "outputs": [
        {
          "internalType": "uint256",
          "name": "",
          "type": "uint256"
        }
      ],
      "stateMutability": "view",
      "type": "function"
    },
    {
      "inputs": [
        {
          "internalType": "uint256",
          "name": "",
          "type": "uint256"
        }
      ],
      "name": "tasks",
      "outputs": [
        {
          "internalType": "uint256",
          "name": "id",
          "type": "uint256"
        },
        {
          "internalType": "string",
          "name": "taskSet",
          "type": "string"
        },
        {
          "internalType": "string",
          "name": "name",
          "type": "string"
        },
        {
          "internalType": "string",
          "name": "slug",
          "type": "string"
        },
        {
          "internalType": "string",
          "name": "efforts",
          "type": "string"
        },
        {
          "internalType": "string",
          "name": "status",
          "type": "string"
        },
        {
          "internalType": "string",
          "name": "deadline",
          "type": "string"
        },
        {
          "internalType": "uint256",
          "name": "completePercentage",
          "type": "uint256"
        },
        {
          "internalType": "string",
          "name": "description",
          "type": "string"
        },
        {
          "internalType": "string",
          "name": "addDate",
          "type": "string"
        },
        {
          "internalType": "string",
          "name": "updateDate",
          "type": "string"
        },
        {
          "internalType": "uint256",
          "name": "company",
          "type": "uint256"
        }
      ],
      "stateMutability": "view",
      "type": "function"
    },
    {
      "inputs": [
        {
          "internalType": "uint256",
          "name": "_id",
          "type": "uint256"
        }
      ],
      "name": "getTask",
      "outputs": [
        {
          "components": [
            {
              "internalType": "uint256",
              "name": "id",
              "type": "uint256"
            },
            {
              "internalType": "string",
              "name": "taskSet",
              "type": "string"
            },
            {
              "internalType": "string",
              "name": "name",
              "type": "string"
            },
            {
              "internalType": "string",
              "name": "slug",
              "type": "string"
            },
            {
              "internalType": "string",
              "name": "efforts",
              "type": "string"
            },
            {
              "internalType": "string",
              "name": "status",
              "type": "string"
            },
            {
              "internalType": "string",
              "name": "deadline",
              "type": "string"
            },
            {
              "internalType": "uint256",
              "name": "completePercentage",
              "type": "uint256"
            },
            {
              "internalType": "string",
              "name": "description",
              "type": "string"
            },
            {
              "internalType": "string",
              "name": "addDate",
              "type": "string"
            },
            {
              "internalType": "string",
              "name": "updateDate",
              "type": "string"
            },
            {
              "internalType": "uint256",
              "name": "company",
              "type": "uint256"
            },
            {
              "internalType": "uint256[]",
              "name": "assign",
              "type": "uint256[]"
            }
          ],
          "internalType": "struct TaskManagement.Task",
          "name": "",
          "type": "tuple"
        }
      ],
      "stateMutability": "view",
      "type": "function"
    },
    {
      "inputs": [],
      "name": "getTaskCount",
      "outputs": [
        {
          "internalType": "uint256",
          "name": "",
          "type": "uint256"
        }
      ],
      "stateMutability": "view",
      "type": "function"
    }
  ],
  "bytecode": "0x608060405234620011165762001918803803806200001d8162001130565b92833981019060208183031262001116578051906001600160401b0382116200111657019080601f83011215620011165781519062000066620000608362001156565b62001130565b9260208085858152019360051b82010190828211620011165760208101935b82851062000e9e578560005b815181101562000e8e57620000a8600154620011ea565b80600155620000b8828462001210565b516000918252602082815260409092208151815591810151805160018401916001600160401b0382116200077f57825490600182811c9216801562000e83575b60208310146200085f5781601f84931162000e4d575b50602090601f831160011462000de25760009262000dd6575b50508160011b916000199060031b1c19161790555b6040810151805160028401916001600160401b0382116200077f57825490600182811c9216801562000dcb575b60208310146200085f5781601f84931162000d95575b50602090601f831160011462000d2a5760009262000d1e575b50508160011b916000199060031b1c19161790555b606081015180516001600160401b0381116200077f576003840154600181811c9116801562000d13575b60208210146200085f57601f811162000cda575b506020601f821160011462000c6557819260009262000c59575b50508160011b916000199060031b1c19161760038301555b608081015180516001600160401b0381116200077f576004840154600181811c9116801562000c4e575b60208210146200085f57601f811162000c15575b506020601f821160011462000ba057819260009262000b94575b50508160011b916000199060031b1c19161760048301555b60a081015180516001600160401b0381116200077f576005840154600181811c9116801562000b89575b60208210146200085f57601f811162000b50575b506020601f821160011462000adb57819260009262000acf575b50508160011b916000199060031b1c19161760058301555b60c081015180516001600160401b0381116200077f576006840154600181811c9116801562000ac4575b60208210146200085f57601f811162000a8b575b506020601f821160011462000a1657819260009262000a0a575b50508160011b916000199060031b1c19161760068301555b60e0810151600783015561010081015180516001600160401b0381116200077f576008840154600181811c91168015620009ff575b60208210146200085f57601f8111620009c6575b506020601f82116001146200095157819260009262000945575b50508160011b916000199060031b1c19161760088301555b61012081015180516001600160401b0381116200077f576009840154600181811c911680156200093a575b60208210146200085f57601f811162000901575b506020601f82116001146200088c57819260009262000880575b50508160011b916000199060031b1c19161760098301555b6101408101518051906001600160401b0382116200077f57600a840154600181811c9116801562000875575b60208210146200085f57601f81116200081a575b50602090601f8311600114620007a1576101809392916000918362000795575b50508160011b916000199060031b1c191617600a8401555b610160810151600b8401550151805191906001600160401b0383116200077f576801000000000000000083116200077f576020600c918284015485848601558086106200075d575b50019101600052602060002060005b83811062000748575050505060015462000543828462001210565b516020015162000554838562001210565b51604001518362000566818762001210565b51606001518162000578818962001210565b516080015162000589828a62001210565b5160a001516200059a838b62001210565b5160c00151620005ab848c62001210565b5160e0015191620005bd858d62001210565b516101000151938c620005d1878262001210565b51610120015196620005e39162001210565b516101400151968d620005f78a8262001210565b51610160015199620006099162001210565b516101800151996040519b6101808d526101808d01620006299162001254565b8c810360208e01526200063c9162001254565b8b810360408d01526200064f9162001254565b8a810360608c0152620006629162001254565b89810360808b0152620006759162001254565b88810360a08a0152620006889162001254565b9060c088015286810360e0880152620006a19162001254565b858103610100870152620006b59162001254565b848103610120860152620006c99162001254565b9061014084015282810361016084015281519081815260200191602001906000905b8082106200072f5750505081620007299493927f52dff6d8666ab18b2504c935798dc1f4419d2d4ba948fff41695e535884e4799920390a2620011ea565b62000091565b90919260208060019286518152019401920190620006eb565b60019060208451940193818401550162000528565b6200077890848601600052868460002091820191016200123b565b8762000519565b634e487b7160e01b600052604160045260246000fd5b015190508780620004b9565b90600a850160005260206000209160005b601f19851681106200080157509183916001936101809695601f19811610620007e7575b505050811b01600a840155620004d1565b015160001960f88460031b161c19169055878080620007d6565b91926020600181928685015181550194019201620007b2565b6200084d90600a86016000526020600020601f850160051c8101916020861062000854575b601f0160051c01906200123b565b8662000499565b90915081906200083f565b634e487b7160e01b600052602260045260246000fd5b90607f169062000485565b01519050868062000441565b600985016000526020600020906000935b601f1984168510620008e5576001945083601f19811610620008cb575b505050811b01600983015562000459565b015160001960f88460031b161c19169055868080620008ba565b818101518355602094850194600190930192909101906200089d565b6200093390600986016000526020600020601f840160051c810191602085106200085457601f0160051c01906200123b565b8662000427565b90607f169062000413565b015190508680620003d0565b600885016000526020600020906000935b601f1984168510620009aa576001945083601f1981161062000990575b505050811b016008830155620003e8565b015160001960f88460031b161c191690558680806200097f565b8181015183556020948501946001909301929091019062000962565b620009f890600886016000526020600020601f840160051c810191602085106200085457601f0160051c01906200123b565b86620003b6565b90607f1690620003a2565b01519050868062000355565b600685016000526020600020906000935b601f198416851062000a6f576001945083601f1981161062000a55575b505050811b0160068301556200036d565b015160001960f88460031b161c1916905586808062000a44565b8181015183556020948501946001909301929091019062000a27565b62000abd90600686016000526020600020601f840160051c810191602085106200085457601f0160051c01906200123b565b866200033b565b90607f169062000327565b015190508680620002e5565b600585016000526020600020906000935b601f198416851062000b34576001945083601f1981161062000b1a575b505050811b016005830155620002fd565b015160001960f88460031b161c1916905586808062000b09565b8181015183556020948501946001909301929091019062000aec565b62000b8290600586016000526020600020601f840160051c810191602085106200085457601f0160051c01906200123b565b86620002cb565b90607f1690620002b7565b01519050868062000275565b600485016000526020600020906000935b601f198416851062000bf9576001945083601f1981161062000bdf575b505050811b0160048301556200028d565b015160001960f88460031b161c1916905586808062000bce565b8181015183556020948501946001909301929091019062000bb1565b62000c4790600486016000526020600020601f840160051c810191602085106200085457601f0160051c01906200123b565b866200025b565b90607f169062000247565b01519050868062000205565b600385016000526020600020906000935b601f198416851062000cbe576001945083601f1981161062000ca4575b505050811b0160038301556200021d565b015160001960f88460031b161c1916905586808062000c93565b8181015183556020948501946001909301929091019062000c76565b62000d0c90600386016000526020600020601f840160051c810191602085106200085457601f0160051c01906200123b565b86620001eb565b90607f1690620001d7565b01519050878062000198565b6000858152602081209350601f198516905b81811062000d7c575090846001959493921062000d62575b505050811b019055620001ad565b015160001960f88460031b161c1916905587808062000d54565b9293602060018192878601518155019501930162000d3c565b62000dc490856000526020600020601f850160051c810191602086106200085457601f0160051c01906200123b565b886200017f565b91607f169162000169565b01519050878062000127565b6000858152602081209350601f198516905b81811062000e34575090846001959493921062000e1a575b505050811b0190556200013c565b015160001960f88460031b161c1916905587808062000e0c565b9293602060018192878601518155019501930162000df4565b62000e7c90856000526020600020601f850160051c810191602086106200085457601f0160051c01906200123b565b886200010e565b91607f1691620000f8565b60405161069c90816200127c8239f35b84516001600160401b038111620011165782016101a080601f1983880301126200111657604051918183016001600160401b038111848210176200111b576040908152602082015184528101516001600160401b038111620011165787602062000f0b9284010162001193565b60208401526060818101519092906001600160401b038111620011165788602062000f399285010162001193565b60408501526080828101519093906001600160401b038111620011165789602062000f679286010162001193565b9085015260a0828101519093906001600160401b038111620011165789602062000f949286010162001193565b9085015260c0828101519093906001600160401b038111620011165789602062000fc19286010162001193565b9085015260e0828101519093906001600160401b038111620011165789602062000fee9286010162001193565b90850152610100928383015190850152610120928383015160018060401b0381116200111657896020620010259286010162001193565b90850152610140828101519093906001600160401b0381116200111657896020620010539286010162001193565b90850152610160828101519093906001600160401b0381116200111657896020620010819286010162001193565b908501526101808281015193850193909352810151906001600160401b0382116200111657019086603f830112156200111657602082015191620010c9620000608462001156565b926040602085838152019160051b830101918983116200111657604001905b828210620011055750505082015281526020948501940162000085565b8151815260209182019101620010e8565b600080fd5b60246000634e487b7160e01b81526041600452fd5b6040519190601f01601f191682016001600160401b038111838210176200077f57604052565b6001600160401b0381116200077f5760051b60200190565b60005b838110620011825750506000910152565b818101518382015260200162001171565b81601f82011215620011165780516001600160401b0381116200077f57620011c5601f8201601f191660200162001130565b92818452602082840101116200111657620011e791602080850191016200116e565b90565b6000198114620011fa5760010190565b634e487b7160e01b600052601160045260246000fd5b8051821015620012255760209160051b010190565b634e487b7160e01b600052603260045260246000fd5b81811062001247575050565b600081556001016200123b565b906020916200126f815180928185528580860191016200116e565b601f01601f191601019056fe608080604052600436101561001357600080fd5b60003560e01c9081631d65e77e146101c7575080638d9776721461006e578063b6cb58a51461004b5763c17a340e1461004b57600080fd5b34610069576000366003190112610069576020600154604051908152f35b600080fd5b34610069576020366003190112610069576004356000526000602052604060002080546001820161009e90610595565b916100ab60028201610595565b906100b860038201610595565b6100c460048301610595565b6100d060058401610595565b6100dc60068501610595565b6007850154916100ee60088701610595565b936100fb60098801610595565b95610108600a8901610595565b97600b0154986040519b8c9b8c528b6101806020819201528c0161012b91610500565b8b810360408d015261013c91610500565b8a810360608c015261014d91610500565b89810360808b015261015e91610500565b88810360a08a015261016f91610500565b87810360c089015261018091610500565b9060e087015285810361010087015261019891610500565b8481036101208601526101aa91610500565b8381036101408501526101bc91610500565b906101608301520390f35b34610069576020366003190112610069576060610180600435926101ea81610540565b6000815282602082015282604082015282808201528260808201528260a08201528260c0820152600060e082015282610100820152826101208201528261014082015260006101608201520152600154811115806104f7575b156104bf576000526000602052604060002060405161026181610540565b8154815261027160018301610595565b602082015261028260028301610595565b604082015261029360038301610595565b60608201526102a460048301610595565b60808201526102b560058301610595565b60a08201526102c660068301610595565b60c0820152600782015460e08201526102e160088301610595565b6101008201526102f360098301610595565b610120820152610305600a8301610595565b610140820152600b820154610160820152604051600c819301906020825491828152019160005260206000209060005b8181106104a95760406020868861034e81890382610573565b61018082015261018061045761043f6104276104046103ee6103d86103c26103ac6103968a6101a08e519e8f9e8f9381855280518286015201519201526101c08d0190610500565b60408b01518c8203601f190160608e0152610500565b60608a01518b8203601f190160808d0152610500565b60808901518a8203601f190160a08c0152610500565b60a0880151898203601f190160c08b0152610500565b60c0870151888203601f190160e08a0152610500565b60e0860151610100880152610100860151601f1988830301610120890152610500565b610120850151868203601f1901610140880152610500565b610140840151858203601f1901610160870152610500565b9161016081015182850152015190601f19838203016101a08401526020808351928381520192019060005b818110610490575050500390f35b8251845285945060209384019390920191600101610482565b8254845260209093019260019283019201610335565b60405162461bcd60e51b815260206004820152601060248201526f24b73b30b634b2103a30b9b59024a21760811b6044820152606490fd5b50801515610243565b919082519283825260005b84811061052c575050826000602080949584010152601f8019910116010190565b60208183018101518483018201520161050b565b6101a0810190811067ffffffffffffffff82111761055d57604052565b634e487b7160e01b600052604160045260246000fd5b90601f8019910116810190811067ffffffffffffffff82111761055d57604052565b90604051906000835490600182811c9080841696871561065c575b6020948584108914610648578798848997989952908160001461062657506001146105e7575b5050506105e592500383610573565b565b600090815285812095935091905b81831061060e5750506105e593508201013880806105d6565b855488840185015294850194879450918301916105f5565b925050506105e594925060ff191682840152151560051b8201013880806105d6565b634e487b7160e01b85526022600452602485fd5b91607f16916105b056fea26469706673582212208b9a754b3999b661114aa2fd3355fc27ef7a53108a8b39544670822a8f3730db64736f6c63430008110033",
  "immutableReferences": {},
  "source": "// SPDX-License-Identifier: MIT\npragma solidity ^0.8.0;\n\ncontract TaskManagement {\n    struct Task {\n        uint256 id;\n        string taskSet;\n        string name;\n        string slug;\n        string efforts;\n        string status;\n        string deadline;\n        uint256 completePercentage;\n        string description;\n        string addDate;\n        string updateDate;\n        uint256 company;\n        uint256[] assign;\n    }\n\n    mapping(uint256 => Task) public tasks;\n    uint256 public taskCount;\n\n    event TaskAdded(\n        uint256 indexed id,\n        string taskSet,\n        string name,\n        string slug,\n        string efforts,\n        string status,\n        string deadline,\n        uint256 completePercentage,\n        string description,\n        string addDate,\n        string updateDate,\n        uint256 company,\n        uint256[] assign\n    );\n\n    constructor(Task[] memory _tasks) {\n        for (uint256 i = 0; i < _tasks.length; i++) {\n            taskCount++;\n            tasks[taskCount] = _tasks[i];\n            emit TaskAdded(\n                taskCount,\n                _tasks[i].taskSet,\n                _tasks[i].name,\n                _tasks[i].slug,\n                _tasks[i].efforts,\n                _tasks[i].status,\n                _tasks[i].deadline,\n                _tasks[i].completePercentage,\n                _tasks[i].description,\n                _tasks[i].addDate,\n                _tasks[i].updateDate,\n                _tasks[i].company,\n                _tasks[i].assign\n            );\n        }\n    }\n\n    function getTask(uint256 _id) public view returns (Task memory) {\n        require(_id <= taskCount && _id > 0, \"Invalid task ID.\");\n        return tasks[_id];\n    }\n\n    function getTaskCount() public view returns (uint256) {\n        return taskCount;\n    }\n}\n",
  "sourcePath": "/Users/abhayrathi/Desktop/Developer/capstone_proj/blockchain-node/contracts/Tasks.sol",
  "compiler": {
    "name": "solc",
    "version": "0.8.17+commit.8df45f5f.Emscripten.clang"
  },
  "schemaVersion": "3.4.16",
  "updatedAt": "2024-05-08T15:12:37.812Z",
  "devdoc": {
    "kind": "dev",
    "methods": {},
    "version": 1
  },
  "userdoc": {
    "kind": "user",
    "methods": {},
    "version": 1
  }
}