{
  "contractName": "TaskRegistry",
  "abi": [
    {
      "inputs": [
        {
          "internalType": "uint256",
          "name": "",
          "type": "uint256"
        }
      ],
      "name": "tasks",
      "outputs": [
        {
          "internalType": "uint256",
          "name": "id",
          "type": "uint256"
        },
        {
          "internalType": "string",
          "name": "name",
          "type": "string"
        },
        {
          "internalType": "string",
          "name": "slug",
          "type": "string"
        },
        {
          "internalType": "string",
          "name": "efforts",
          "type": "string"
        },
        {
          "internalType": "uint256",
          "name": "status",
          "type": "uint256"
        },
        {
          "internalType": "string",
          "name": "dead_line",
          "type": "string"
        },
        {
          "internalType": "uint256",
          "name": "complete_per",
          "type": "uint256"
        },
        {
          "internalType": "string",
          "name": "description",
          "type": "string"
        },
        {
          "internalType": "string",
          "name": "add_date",
          "type": "string"
        },
        {
          "internalType": "string",
          "name": "upd_date",
          "type": "string"
        },
        {
          "internalType": "uint256",
          "name": "company",
          "type": "uint256"
        }
      ],
      "stateMutability": "view",
      "type": "function"
    },
    {
      "inputs": [
        {
          "internalType": "uint256",
          "name": "_id",
          "type": "uint256"
        },
        {
          "internalType": "string",
          "name": "_name",
          "type": "string"
        },
        {
          "internalType": "string",
          "name": "_slug",
          "type": "string"
        },
        {
          "internalType": "string",
          "name": "_efforts",
          "type": "string"
        },
        {
          "internalType": "uint256",
          "name": "_status",
          "type": "uint256"
        },
        {
          "internalType": "string",
          "name": "_dead_line",
          "type": "string"
        },
        {
          "internalType": "uint256",
          "name": "_complete_per",
          "type": "uint256"
        },
        {
          "internalType": "string",
          "name": "_description",
          "type": "string"
        },
        {
          "internalType": "string",
          "name": "_add_date",
          "type": "string"
        },
        {
          "internalType": "string",
          "name": "_upd_date",
          "type": "string"
        },
        {
          "internalType": "uint256",
          "name": "_company",
          "type": "uint256"
        },
        {
          "internalType": "uint256[]",
          "name": "_assign",
          "type": "uint256[]"
        }
      ],
      "name": "addTask",
      "outputs": [],
      "stateMutability": "nonpayable",
      "type": "function"
    },
    {
      "inputs": [
        {
          "internalType": "uint256",
          "name": "_index",
          "type": "uint256"
        }
      ],
      "name": "getTask",
      "outputs": [
        {
          "components": [
            {
              "internalType": "uint256",
              "name": "id",
              "type": "uint256"
            },
            {
              "internalType": "string",
              "name": "name",
              "type": "string"
            },
            {
              "internalType": "string",
              "name": "slug",
              "type": "string"
            },
            {
              "internalType": "string",
              "name": "efforts",
              "type": "string"
            },
            {
              "internalType": "uint256",
              "name": "status",
              "type": "uint256"
            },
            {
              "internalType": "string",
              "name": "dead_line",
              "type": "string"
            },
            {
              "internalType": "uint256",
              "name": "complete_per",
              "type": "uint256"
            },
            {
              "internalType": "string",
              "name": "description",
              "type": "string"
            },
            {
              "internalType": "string",
              "name": "add_date",
              "type": "string"
            },
            {
              "internalType": "string",
              "name": "upd_date",
              "type": "string"
            },
            {
              "internalType": "uint256",
              "name": "company",
              "type": "uint256"
            },
            {
              "internalType": "uint256[]",
              "name": "assign",
              "type": "uint256[]"
            }
          ],
          "internalType": "struct TaskRegistry.Task",
          "name": "",
          "type": "tuple"
        }
      ],
      "stateMutability": "view",
      "type": "function"
    },
    {
      "inputs": [],
      "name": "getTasksCount",
      "outputs": [
        {
          "internalType": "uint256",
          "name": "",
          "type": "uint256"
        }
      ],
      "stateMutability": "view",
      "type": "function"
    }
  ],
  "bytecode": "0x60808060405234601557611088908161001a8239f35b5f80fdfe6080806040526004361015610012575f80fd5b5f3560e01c9081631d65e77e14610b84575080638d97767214610a565780639f89927314610a3a5763a01ef9f314610048575f80fd5b34610a3657610180366003190112610a36576024356001600160401b038111610a3657610079903690600401610fe7565b6044356001600160401b038111610a3657610098903690600401610fe7565b6064356001600160401b038111610a36576100b7903690600401610fe7565b60a4356001600160401b038111610a36576100d6903690600401610fe7565b60e4356001600160401b038111610a36576100f5903690600401610fe7565b610104356001600160401b038111610a3657610115903690600401610fe7565b91610124356001600160401b038111610a3657610136903690600401610fe7565b936001600160401b036101643511610a365736602361016435011215610a36576001600160401b0361016435600401351161055457604051956101866020610164356004013560051b0188610f24565b6004610164359081013580895260051b0160240160208801368211610a365760246101643501905b828210610a2657505050604051976101c589610f08565b6004358952602089015260408801526060870152608435608087015260a086015260c43560c086015260e0850152610100840152610120830152610144356101408301526101608201525f54600160401b8110156105545780600161022c92015f55610e85565b610a13578151815560208201519182516001600160401b038111610554576102576001840154610ed0565b601f81116109e0575b506020601f821160011461097657819293945f9261096b575b50508160011b915f199060031b1c19161760018301555b60408101519182516001600160401b038111610554576102b36002830154610ed0565b601f8111610938575b506020601f82116001146108ce57819293945f926108c3575b50508160011b915f199060031b1c19161760028201555b60608201519182516001600160401b0381116105545761030f6003840154610ed0565b601f8111610890575b506020601f821160011461082657819293945f9261081b575b50508160011b915f199060031b1c19161760038301555b6080810151600483015560a08101519182516001600160401b038111610554576103756005830154610ed0565b601f81116107e8575b506020601f821160011461077e57819293945f92610773575b50508160011b915f199060031b1c19161760058201555b60c0820151600682015560e08201519182516001600160401b038111610554576103db6007840154610ed0565b601f8111610740575b506020601f82116001146106d657819293945f926106cb575b50508160011b915f199060031b1c19161760078301555b6101008101519182516001600160401b038111610554576104386008830154610ed0565b601f8111610698575b506020601f821160011461062e57819293945f92610623575b50508160011b915f199060031b1c19161760088201555b6101208201518051906001600160401b038211610554576104956009840154610ed0565b601f81116105e5575b50602090601f83116001146105735791806101609492600b945f92610568575b50508160011b915f199060031b1c19161760098201555b610140840151600a820155019101518051906001600160401b03821161055457600160401b8211610554576020908354838555808410610539575b5001915f5260205f20915f5b82811061052557005b60019060208351930192818601550161051c565b61054e90855f5284845f20918201910161103c565b5f610510565b634e487b7160e01b5f52604160045260245ffd5b015190505f806104be565b90600984015f5260205f20915f5b601f19851681106105cd5750926101609492600192600b9583601f198116106105b5575b505050811b0160098201556104d5565b01515f1960f88460031b161c191690555f80806105a5565b91926020600181928685015181550194019201610581565b61061390600985015f5260205f20601f850160051c81019160208610610619575b601f0160051c019061103c565b5f61049e565b9091508190610606565b015190505f8061045a565b600883015f5260205f20905f5b601f19841681106106805750600193949583601f19811610610668575b505050811b016008820155610471565b01515f1960f88460031b161c191690555f8080610658565b9091602060018192858a01518155019301910161063b565b6106c590600884015f5260205f20601f840160051c8101916020851061061957601f0160051c019061103c565b5f610441565b015190505f806103fd565b600784015f5260205f20905f5b601f19841681106107285750600193949583601f19811610610710575b505050811b016007830155610414565b01515f1960f88460031b161c191690555f8080610700565b9091602060018192858a0151815501930191016106e3565b61076d90600785015f5260205f20601f840160051c8101916020851061061957601f0160051c019061103c565b5f6103e4565b015190505f80610397565b600583015f5260205f20905f5b601f19841681106107d05750600193949583601f198116106107b8575b505050811b0160058201556103ae565b01515f1960f88460031b161c191690555f80806107a8565b9091602060018192858a01518155019301910161078b565b61081590600584015f5260205f20601f840160051c8101916020851061061957601f0160051c019061103c565b5f61037e565b015190505f80610331565b600384015f5260205f20905f5b601f19841681106108785750600193949583601f19811610610860575b505050811b016003830155610348565b01515f1960f88460031b161c191690555f8080610850565b9091602060018192858a015181550193019101610833565b6108bd90600385015f5260205f20601f840160051c8101916020851061061957601f0160051c019061103c565b5f610318565b015190505f806102d5565b600283015f5260205f20905f5b601f19841681106109205750600193949583601f19811610610908575b505050811b0160028201556102ec565b01515f1960f88460031b161c191690555f80806108f8565b9091602060018192858a0151815501930191016108db565b61096590600284015f5260205f20601f840160051c8101916020851061061957601f0160051c019061103c565b5f6102bc565b015190505f80610279565b600184015f5260205f20905f5b601f19841681106109c85750600193949583601f198116106109b0575b505050811b016001830155610290565b01515f1960f88460031b161c191690555f80806109a0565b9091602060018192858a015181550193019101610983565b610a0d90600185015f5260205f20601f840160051c8101916020851061061957601f0160051c019061103c565b5f610260565b634e487b7160e01b5f525f60045260245ffd5b81358152602091820191016101ae565b5f80fd5b34610a36575f366003190112610a365760205f54604051908152f35b34610a36576020366003190112610a36576004355f54811015610a3657610a7c90610e85565b508054610a8b60018301610f45565b91610a9860028201610f45565b90610aa560038201610f45565b6004820154610ab660058401610f45565b600684015490610ac860078601610f45565b92610ad560088701610f45565b94610ae260098801610f45565b96600a0154976040519a8b9a610160908c528060208d01528b01610b0591610e61565b8a810360408c0152610b1691610e61565b89810360608b0152610b2791610e61565b90608089015287810360a0890152610b3e91610e61565b9060c087015285810360e0870152610b5591610e61565b848103610100860152610b6791610e61565b838103610120850152610b7991610e61565b906101408301520390f35b34610a36576020366003190112610a3657606061016060043592610ba781610f08565b5f815282602082015282604082015282808201525f60808201528260a08201525f60c08201528260e082015282610100820152826101208201525f61014082015201525f54811015610e2657610bfc90610e85565b5060405190610c0a82610f08565b80548252610c1a60018201610f45565b6020830152610c2b60028201610f45565b6040830152610c3c60038201610f45565b606083015260048101546080830152610c5760058201610f45565b60a0830152600681015460c0830152610c7260078201610f45565b60e0830152610c8360088201610f45565b610100830152610c9560098201610f45565b610120830152600a8101546101408301526040518082600b60208184960154948581520191015f5260205f20925f5b818110610e0d575050610cd992500382610f24565b61016082015260405180916020825280516020830152610160610dbc610da4610d8c610d6b610d4b610d35610d1f602089015161018060408c01526101a08b0190610e61565b60408901518a8203601f190160608c0152610e61565b6060880151898203601f190160808b0152610e61565b608087015160a089015260a0870151601f198983030160c08a0152610e61565b60c086015160e088015260e0860151601f1988830301610100890152610e61565b610100850151868203601f1901610120880152610e61565b610120840151858203601f1901610140870152610e61565b9161014081015182850152015190601f1983820301610180840152602080835192838152019201905f5b818110610df4575050500390f35b8251845285945060209384019390920191600101610de6565b8454835260019485019486945060209093019201610cc4565b60405162461bcd60e51b8152602060048201526013602482015272496e646578206f7574206f6620626f756e647360681b6044820152606490fd5b805180835260209291819084018484015e5f828201840152601f01601f1916010190565b5f54811015610ebc57600c905f8052027f290decd9548b62a8d60345a988386fc84ba6bc95484008f6362f93160ef3e56301905f90565b634e487b7160e01b5f52603260045260245ffd5b90600182811c92168015610efe575b6020831014610eea57565b634e487b7160e01b5f52602260045260245ffd5b91607f1691610edf565b61018081019081106001600160401b0382111761055457604052565b90601f801991011681019081106001600160401b0382111761055457604052565b9060405191825f8254610f5781610ed0565b908184526020946001916001811690815f14610fc55750600114610f87575b505050610f8592500383610f24565b565b5f90815285812095935091905b818310610fad575050610f8593508201015f8080610f76565b85548884018501529485019487945091830191610f94565b92505050610f8594925060ff191682840152151560051b8201015f8080610f76565b81601f82011215610a36578035906001600160401b038211610554576040519261101b601f8401601f191660200185610f24565b82845260208383010111610a3657815f926020809301838601378301015290565b818110611047575050565b5f815560010161103c56fea26469706673582212208533dd644ce6be90b4b95b27d46108da16c097b83eeaee1384cb12e41f49622d64736f6c63430008190033",
  "immutableReferences": {},
  "source": "// SPDX-License-Identifier: MIT\npragma solidity ^0.8.0;\n\ncontract TaskRegistry {\n    struct Task {\n        uint256 id;\n        string name;\n        string slug;\n        string efforts;\n        uint256 status;\n        string dead_line;\n        uint256 complete_per;\n        string description;\n        string add_date;\n        string upd_date;\n        uint256 company;\n        uint256[] assign;\n    }\n\n    Task[] public tasks;\n\n    function addTask(\n        uint256 _id,\n        string memory _name,\n        string memory _slug,\n        string memory _efforts,\n        uint256 _status,\n        string memory _dead_line,\n        uint256 _complete_per,\n        string memory _description,\n        string memory _add_date,\n        string memory _upd_date,\n        uint256 _company,\n        uint256[] memory _assign\n    ) public {\n        tasks.push(Task(_id, _name, _slug, _efforts, _status, _dead_line, _complete_per, _description, _add_date, _upd_date, _company, _assign));\n    }\n\n    function getTask(uint256 _index) public view returns (Task memory) {\n        require(_index < tasks.length, \"Index out of bounds\");\n        return tasks[_index];\n    }\n\n    function getTasksCount() public view returns (uint256) {\n        return tasks.length;\n    }\n}\n",
  "sourcePath": "/Users/abhayrathi/Desktop/Developer/capstone_proj/blockchain-node/contracts/ProjectList.sol",
  "compiler": {
    "name": "solc",
    "version": "0.8.25+commit.b61c2a91.Emscripten.clang"
  },
  "schemaVersion": "3.4.16",
  "updatedAt": "2024-05-06T07:02:29.499Z",
  "devdoc": {
    "kind": "dev",
    "methods": {},
    "version": 1
  },
  "userdoc": {
    "kind": "user",
    "methods": {},
    "version": 1
  }
}