{
  "contractName": "TeamRegistry",
  "abi": [
    {
      "inputs": [
        {
          "internalType": "uint256",
          "name": "",
          "type": "uint256"
        }
      ],
      "name": "teams",
      "outputs": [
        {
          "internalType": "uint256",
          "name": "id",
          "type": "uint256"
        },
        {
          "internalType": "string",
          "name": "social_name",
          "type": "string"
        },
        {
          "internalType": "string",
          "name": "name",
          "type": "string"
        },
        {
          "internalType": "string",
          "name": "email",
          "type": "string"
        },
        {
          "internalType": "string",
          "name": "city",
          "type": "string"
        },
        {
          "internalType": "string",
          "name": "found_date",
          "type": "string"
        }
      ],
      "stateMutability": "view",
      "type": "function"
    },
    {
      "inputs": [
        {
          "internalType": "uint256",
          "name": "_id",
          "type": "uint256"
        },
        {
          "internalType": "string",
          "name": "_social_name",
          "type": "string"
        },
        {
          "internalType": "string",
          "name": "_name",
          "type": "string"
        },
        {
          "internalType": "string",
          "name": "_email",
          "type": "string"
        },
        {
          "internalType": "string",
          "name": "_city",
          "type": "string"
        },
        {
          "internalType": "string",
          "name": "_found_date",
          "type": "string"
        }
      ],
      "name": "addTeam",
      "outputs": [],
      "stateMutability": "nonpayable",
      "type": "function"
    },
    {
      "inputs": [
        {
          "internalType": "uint256",
          "name": "_id",
          "type": "uint256"
        }
      ],
      "name": "getTeam",
      "outputs": [
        {
          "components": [
            {
              "internalType": "uint256",
              "name": "id",
              "type": "uint256"
            },
            {
              "internalType": "string",
              "name": "social_name",
              "type": "string"
            },
            {
              "internalType": "string",
              "name": "name",
              "type": "string"
            },
            {
              "internalType": "string",
              "name": "email",
              "type": "string"
            },
            {
              "internalType": "string",
              "name": "city",
              "type": "string"
            },
            {
              "internalType": "string",
              "name": "found_date",
              "type": "string"
            }
          ],
          "internalType": "struct TeamRegistry.Team",
          "name": "",
          "type": "tuple"
        }
      ],
      "stateMutability": "view",
      "type": "function"
    }
  ],
  "bytecode": "0x60808060405234601557610a61908161001a8239f35b5f80fdfe60806040908082526004361015610014575f80fd5b5f3560e01c9081628e0f1b1461076e57508063023e3a871461010557633ed2b77a1461003e575f80fd5b34610101576020366003190112610101576004355f525f602052805f20906100fd8254916100ef61007160018601610989565b946100e161008160028301610989565b936100d361009160038501610989565b916100aa60056100a360048801610989565b9601610989565b966100c682519b8c9b8c5260c060208d015260c08c019061089c565b918a8303908b015261089c565b90878203606089015261089c565b90858203608087015261089c565b9083820360a085015261089c565b0390f35b5f80fd5b50346101015760c036600319011261010157600435906024356001600160401b0381116101015761013a9036906004016108fc565b916044356001600160401b0381116101015761015a9036906004016108fc565b926064356001600160401b0381116101015761017a9036906004016108fc565b936084356001600160401b0381116101015761019a9036906004016108fc565b9160a4356001600160401b038111610101576101ba9036906004016108fc565b948051946101c7866108c0565b80865260208601928352818601938452606086019788526080860194855260a086019687525f525f6020525f2093518455518051906001600160401b03821161045a5781906102196001870154610951565b601f811161071b575b50602090601f83116001146106ad575f926106a2575b50508160011b915f199060031b1c19161760018401555b51805160028401916001600160401b03821161045a5781906102718454610951565b601f8111610652575b50602090601f83116001146105ee575f926105e3575b50508160011b915f199060031b1c19161790555b60039384830190518051906001600160401b03821161045a5781906102c98454610951565b601f8111610593575b50602090601f8311600114610530575f92610525575b50508160011b915f1990881b1c19161790555b51805160048301916001600160401b03821161045a5761031b8354610951565b601f81116104e0575b50602090601f8311600114610479576005949392915f918361046e575b50508160011b915f1990881b1c19161790555b019051918251906001600160401b03821161045a576103738354610951565b601f8111610415575b506020601f83116001146103b4578293945f936103a9575b50508260011b925f19911b1c19161790555f80f35b015191505f80610394565b90601f19831691845f5260205f20925f5b8181106103fd5750958460019697106103e4575b50505050811b019055005b01519060f8845f19921b161c191690555f8080806103d9565b9193602060018192878b0151815501950192016103c5565b835f5260205f20601f840160051c81019160208510610450575b601f0160051c01905b818110610445575061037c565b5f8155600101610438565b909150819061042f565b634e487b7160e01b5f52604160045260245ffd5b015190505f80610341565b90601f19831691845f5260205f20925f5b8181106104c85750916001939185600598979694106104b1575b505050811b019055610354565b01515f19838a1b60f8161c191690555f80806104a4565b9293602060018192878601518155019501930161048a565b835f5260205f20601f840160051c8101916020851061051b575b601f0160051c01905b8181106105105750610324565b5f8155600101610503565b90915081906104fa565b015190505f806102e8565b5f858152602081209350601f198516905b81811061057b5750908460019594939210610564575b505050811b0190556102fb565b01515f19838a1b60f8161c191690555f8080610557565b92936020600181928786015181550195019301610541565b909150835f5260205f20601f840160051c810191602085106105d9575b90601f859493920160051c01905b8181106105cb57506102d2565b5f81558493506001016105be565b90915081906105b0565b015190505f80610290565b5f858152602081209350601f198516905b81811061063a5750908460019594939210610622575b505050811b0190556102a4565b01515f1960f88460031b161c191690555f8080610615565b929360206001819287860151815501950193016105ff565b909150835f5260205f20601f840160051c81019160208510610698575b90601f859493920160051c01905b81811061068a575061027a565b5f815584935060010161067d565b909150819061066f565b015190505f80610238565b9250600186015f5260205f20905f935b601f1984168510610700576001945083601f198116106106e8575b505050811b01600184015561024f565b01515f1960f88460031b161c191690555f80806106d8565b818101518355602094850194600190930192909101906106bd565b909150600186015f5260205f20601f840160051c81019160208510610764575b90601f859493920160051c01905b8181106107565750610222565b5f8155849350600101610749565b909150819061073b565b90503461010157602090816003193601126101015761085960a0826107956100fd946108c0565b5f8152606091818387819401528288820152828082015282608082015201526004355f525f845261088f855f209561087e8361086d8351998a9788956107da876108c0565b8254875260c06107ec60018501610989565b8d890190815260a0610837600561080560028901610989565b97868d0198895261081860038201610989565b9a8d019a8b52608061082c60048301610989565b9d019c8d5201610989565b9c019b8c5282519e8f9e8f918183525191015251918d015260e08c019061089c565b9051601f1997888c840301908c015261089c565b9051858983030160808a015261089c565b9051838783030160a088015261089c565b9151908483030160c08501525b805180835260209291819084018484015e5f828201840152601f01601f1916010190565b60c081019081106001600160401b0382111761045a57604052565b90601f801991011681019081106001600160401b0382111761045a57604052565b81601f82011215610101578035906001600160401b03821161045a5760405192610930601f8401601f1916602001856108db565b8284526020838301011161010157815f926020809301838601378301015290565b90600182811c9216801561097f575b602083101461096b57565b634e487b7160e01b5f52602260045260245ffd5b91607f1691610960565b9060405191825f825461099b81610951565b908184526020946001916001811690815f14610a0957506001146109cb575b5050506109c9925003836108db565b565b5f90815285812095935091905b8183106109f15750506109c993508201015f80806109ba565b855488840185015294850194879450918301916109d8565b925050506109c994925060ff191682840152151560051b8201015f80806109ba56fea2646970667358221220df5de97c46cbca629fc20f5dd50ff9eecb5d3bf144c6735b0b286eaab82e0cd364736f6c63430008190033",
  "immutableReferences": {},
  "source": "// SPDX-License-Identifier: MIT\npragma solidity ^0.8.0;\n\ncontract TeamRegistry {\n    struct Team {\n        uint256 id;\n        string social_name;\n        string name;\n        string email;\n        string city;\n        string found_date;\n    }\n\n    mapping(uint256 => Team) public teams;\n\n    function addTeam(\n        uint256 _id,\n        string memory _social_name,\n        string memory _name,\n        string memory _email,\n        string memory _city,\n        string memory _found_date\n    ) public {\n        teams[_id] = Team(_id, _social_name, _name, _email, _city, _found_date);\n    }\n\n    function getTeam(uint256 _id) public view returns (Team memory) {\n        return teams[_id];\n    }\n}\n",
  "sourcePath": "/Users/abhayrathi/Desktop/Developer/capstone_proj/blockchain-node/contracts/TeamRegistry.sol",
  "compiler": {
    "name": "solc",
    "version": "0.8.25+commit.b61c2a91.Emscripten.clang"
  },
  "schemaVersion": "3.4.16",
  "updatedAt": "2024-05-06T07:02:29.505Z",
  "devdoc": {
    "kind": "dev",
    "methods": {},
    "version": 1
  },
  "userdoc": {
    "kind": "user",
    "methods": {},
    "version": 1
  }
}