{
  "contractName": "UserRegistry",
  "abi": [
    {
      "inputs": [
        {
          "internalType": "uint256",
          "name": "",
          "type": "uint256"
        }
      ],
      "name": "userProfiles",
      "outputs": [
        {
          "internalType": "uint256",
          "name": "id",
          "type": "uint256"
        },
        {
          "internalType": "string",
          "name": "email",
          "type": "string"
        },
        {
          "internalType": "string",
          "name": "companyName",
          "type": "string"
        }
      ],
      "stateMutability": "view",
      "type": "function"
    },
    {
      "inputs": [
        {
          "internalType": "uint256",
          "name": "_id",
          "type": "uint256"
        },
        {
          "internalType": "string",
          "name": "_email",
          "type": "string"
        },
        {
          "internalType": "string",
          "name": "_companyName",
          "type": "string"
        }
      ],
      "name": "addUserProfile",
      "outputs": [],
      "stateMutability": "nonpayable",
      "type": "function"
    },
    {
      "inputs": [
        {
          "internalType": "uint256",
          "name": "_index",
          "type": "uint256"
        }
      ],
      "name": "getUserProfile",
      "outputs": [
        {
          "components": [
            {
              "internalType": "uint256",
              "name": "id",
              "type": "uint256"
            },
            {
              "internalType": "string",
              "name": "email",
              "type": "string"
            },
            {
              "internalType": "string",
              "name": "companyName",
              "type": "string"
            }
          ],
          "internalType": "struct UserRegistry.UserProfile",
          "name": "",
          "type": "tuple"
        }
      ],
      "stateMutability": "view",
      "type": "function"
    }
  ],
  "bytecode": "0x608080604052346015576106a2908161001a8239f35b5f80fdfe60406080815260049081361015610014575f80fd5b5f3560e01c806318d4a12d1461040d5780631f52b76c14610321576377d2168f1461003d575f80fd5b3461031d57606036600319011261031d5767ffffffffffffffff60243581811161031d5761006e9036908501610616565b60443582811161031d576100859036908601610616565b93835193610092856104fe565b8135855260209081860193845285019586525f54946801000000000000000086101561030a576100c86001968781015f5561047b565b9190916102f85751815585810193519384518681116102e5576100eb82546104c6565b95601f968781116102a2575b50849087831160011461023e576002949392915f9183610233575b50505f19600383901b1c191690891b1790555b019551918251948511610220575061013d86546104c6565b8381116101dd575b508092841160011461017e57509282939183925f94610173575b50501b915f199060031b1c19161790555f80f35b015192505f8061015f565b919083601f198116875f52845f20945f905b888383106101c357505050106101ab575b505050811b019055005b01515f1960f88460031b161c191690555f80806101a1565b858701518855909601959485019487935090810190610190565b865f52815f208480870160051c820192848810610217575b0160051c019086905b82811061020c575050610145565b5f81550186906101fe565b925081926101f5565b604190634e487b7160e01b5f525260245ffd5b015190505f80610112565b9392918991601f19821690845f52875f20915f5b8982821061028c575050968360029810610274575b505050811b019055610125565b01515f1960f88460031b161c191690555f8080610267565b838a015185558e96909401939283019201610252565b835f52855f208880850160051c8201928886106102dc575b0160051c01908a905b8281106102d15750506100f7565b5f8155018a906102c3565b925081926102ba565b604185634e487b7160e01b5f525260245ffd5b5f84634e487b7160e01b82525260245ffd5b604183634e487b7160e01b5f525260245ffd5b5f80fd5b503461031d576020918260031936011261031d578035906060838051610346816104fe565b5f8152828782015201525f548210156103d457506103666103d09161047b565b506103bd835193610376856104fe565b82548552606061039a600261038d60018701610550565b9589890196875201610550565b9382870194855282519788978189525190880152519186015260808501906105f2565b9051838203601f190160608501526105f2565b0390f35b825162461bcd60e51b81529081018490526013602482015272496e646578206f7574206f6620626f756e647360681b6044820152606490fd5b50903461031d57602036600319011261031d57355f5481101561031d576104339061047b565b50906103d0825491610453600261044c60018701610550565b9501610550565b61046e825195869586526060602087015260608601906105f2565b91848303908501526105f2565b5f548110156104b2576003905f8052027f290decd9548b62a8d60345a988386fc84ba6bc95484008f6362f93160ef3e56301905f90565b634e487b7160e01b5f52603260045260245ffd5b90600182811c921680156104f4575b60208310146104e057565b634e487b7160e01b5f52602260045260245ffd5b91607f16916104d5565b6060810190811067ffffffffffffffff82111761051a57604052565b634e487b7160e01b5f52604160045260245ffd5b90601f8019910116810190811067ffffffffffffffff82111761051a57604052565b9060405191825f8254610562816104c6565b908184526020946001916001811690815f146105d05750600114610592575b5050506105909250038361052e565b565b5f90815285812095935091905b8183106105b857505061059093508201015f8080610581565b8554888401850152948501948794509183019161059f565b9250505061059094925060ff191682840152151560051b8201015f8080610581565b805180835260209291819084018484015e5f828201840152601f01601f1916010190565b81601f8201121561031d5780359067ffffffffffffffff821161051a576040519261064b601f8401601f19166020018561052e565b8284526020838301011161031d57815f92602080930183860137830101529056fea26469706673582212209ba46dbf07d2cb82699553aba83ddd41a263ebc65cb9186b4cf0e70996eed98664736f6c63430008190033",
  "immutableReferences": {},
  "source": "// SPDX-License-Identifier: MIT\npragma solidity ^0.8.0;\n\ncontract UserRegistry {\n    struct UserProfile {\n        uint256 id;\n        string email;\n        string companyName;\n    }\n\n    UserProfile[] public userProfiles;\n\n    function addUserProfile(\n        uint256 _id,\n        string memory _email,\n        string memory _companyName\n    ) public {\n        userProfiles.push(UserProfile({\n            id: _id,\n            email: _email,\n            companyName: _companyName\n        }));\n    }\n\n    function getUserProfile(uint256 _index) public view returns (UserProfile memory) {\n        require(_index < userProfiles.length, \"Index out of bounds\");\n        return userProfiles[_index];\n    }\n\n}\n",
  "sourcePath": "/Users/abhayrathi/Desktop/Developer/capstone_proj/blockchain-node/contracts/UserProfile.sol",
  "compiler": {
    "name": "solc",
    "version": "0.8.25+commit.b61c2a91.Emscripten.clang"
  },
  "schemaVersion": "3.4.16",
  "updatedAt": "2024-05-06T07:02:29.506Z",
  "devdoc": {
    "kind": "dev",
    "methods": {},
    "version": 1
  },
  "userdoc": {
    "kind": "user",
    "methods": {},
    "version": 1
  }
}