{
  "contractName": "UserContract",
  "abi": [
    {
      "inputs": [
        {
          "components": [
            {
              "internalType": "uint256",
              "name": "userId",
              "type": "uint256"
            },
            {
              "internalType": "string",
              "name": "email",
              "type": "string"
            },
            {
              "internalType": "uint256",
              "name": "company",
              "type": "uint256"
            }
          ],
          "internalType": "struct UserContract.User[]",
          "name": "_users",
          "type": "tuple[]"
        }
      ],
      "stateMutability": "nonpayable",
      "type": "constructor"
    },
    {
      "anonymous": false,
      "inputs": [
        {
          "indexed": true,
          "internalType": "uint256",
          "name": "userId",
          "type": "uint256"
        },
        {
          "indexed": false,
          "internalType": "string",
          "name": "email",
          "type": "string"
        },
        {
          "indexed": false,
          "internalType": "uint256",
          "name": "company",
          "type": "uint256"
        }
      ],
      "name": "UserAdded",
      "type": "event"
    },
    {
      "inputs": [],
      "name": "userCount",
      "outputs": [
        {
          "internalType": "uint256",
          "name": "",
          "type": "uint256"
        }
      ],
      "stateMutability": "view",
      "type": "function"
    },
    {
      "inputs": [
        {
          "internalType": "uint256",
          "name": "",
          "type": "uint256"
        }
      ],
      "name": "users",
      "outputs": [
        {
          "internalType": "uint256",
          "name": "userId",
          "type": "uint256"
        },
        {
          "internalType": "string",
          "name": "email",
          "type": "string"
        },
        {
          "internalType": "uint256",
          "name": "company",
          "type": "uint256"
        }
      ],
      "stateMutability": "view",
      "type": "function"
    },
    {
      "inputs": [
        {
          "internalType": "uint256",
          "name": "_userId",
          "type": "uint256"
        }
      ],
      "name": "getUser",
      "outputs": [
        {
          "internalType": "uint256",
          "name": "userId",
          "type": "uint256"
        },
        {
          "internalType": "string",
          "name": "email",
          "type": "string"
        },
        {
          "internalType": "uint256",
          "name": "company",
          "type": "uint256"
        }
      ],
      "stateMutability": "view",
      "type": "function"
    },
    {
      "inputs": [],
      "name": "getUserCount",
      "outputs": [
        {
          "internalType": "uint256",
          "name": "",
          "type": "uint256"
        }
      ],
      "stateMutability": "view",
      "type": "function"
    }
  ],
  "bytecode": "0x604060808152346103e85761070d8038038061001a81610402565b928339810191602080838503126103e85782516001600160401b03938482116103e8570192601f918583860112156103e8578451948286116102ed5760059686881b90838061006a818501610402565b809a81520192840101928184116103e857848101925b84841061031657505050505060005b8551811015610303578181881b87010151816000526000835285600020908051825560019081830190858101519182518881116102ed578a936100d28354610427565b8b8111610295575b5088908b8311600114610223576000919083610218575b5050600019600383901b1c191690851b1790555b0151600292830155600083815280855287812080549381015489518a81529184018054929491929061013682610427565b91828d88015283811690816000146101e35750600114610195575b5050509180916000805160206106ed83398151915293878301520390a2600019811461017f5760010161008f565b634e487b7160e01b600052601160045260246000fd5b90919293506000528660002091876000935b8385106101ce5750505050820160600190806000805160206106ed83398151915284610151565b805487860160600152930192889082016101a7565b60ff19166060808901919091529215158f1b870190920194508392506000805160206106ed8339815191529150859050610151565b0151905038806100f1565b869291601f19831691856000528b6000209260005b8d82821061026f5750508411610256575b505050811b019055610105565b015160001960f88460031b161c19169055388080610249565b929484849395989297999a9b5086015181550195019301918e9796959391899593610238565b909192809495506000528d89600020908c808601821c8301938c87106102e4575b918f989796959493918a9301901c01915b8281106102d55750506100da565b600081558e97508891016102c7565b935082936102b6565b634e487b7160e01b600052604160045260246000fd5b8486516001555161028b90816104628239f35b83518781116103e85782016060601f1991818382880301126103e8578b51928284018481108c8211176103ed578d528982015184528c8201518b81116103e857820187603f820112156103e8578a810151908c82116103ed57888f938f610382918f9186011601610402565b9383855283830101116103e857918b9593919694928f6000905b8982106103c4575050506000868098830101528584015201518c820152815201930192610080565b81839496989a9597999301015182828701015201908f918d9795939896949261039c565b600080fd5b60246000634e487b7160e01b81526041600452fd5b6040519190601f01601f191682016001600160401b038111838210176102ed57604052565b90600182811c92168015610457575b602083101461044157565b634e487b7160e01b600052602260045260246000fd5b91607f169161043656fe60806040818152600436101561001457600080fd5b600091823560e01c90816307973ccf146100f457508063365b98b2146100b3578063b0467deb1461006f5763b5cb15f71461004e57600080fd5b3461006b578160031936011261006b576020906001549051908152f35b5080fd5b503461006b57602036600319011261006b578091600435815280602052206100af8154916100a4600160028301549201610110565b935193849384610201565b0390f35b503461006b57602036600319011261006b57809160043581528060205220906100af82549160026100e660018601610110565b940154905193849384610201565b83903461006b578160031936011261006b576020906001548152f35b9060405191600090805490600182811c918184169384156101f7575b60209485851081146101e3578489529081156101c55750600114610189575b50505050829003601f01601f1916820167ffffffffffffffff81118382101761017357604052565b634e487b7160e01b600052604160045260246000fd5b909293506000528260002091836000935b8385106101b157505050508301013880808061014b565b80548886018301529301928490820161019a565b60ff191688860152505050151560051b84010190503880808061014b565b634e487b7160e01b87526022600452602487fd5b92607f169261012c565b939291908452602060608186015281519182606087015260005b8381106102415750505060808160008260409488010152601f8019910116850101930152565b81810183015187820160800152820161021b56fea264697066735822122018ac5b376958ea7bc61c61fde2878eb4ae8bf6269b1b03953b187933103a364164736f6c6343000811003306114a5b9b2e34b351ad2d21b4ed2fb4173ea3935bce84000c888e8a7618c2dc",
  "immutableReferences": {},
  "source": "// SPDX-License-Identifier: MIT\npragma solidity ^0.8.0;\n\ncontract UserContract {\n    struct User {\n        uint256 userId;\n        string email;\n        uint256 company;\n    }\n\n    mapping(uint256 => User) public users;\n    uint256 public userCount;\n\n    event UserAdded(uint256 indexed userId, string email, uint256 company);\n\n    constructor(User[] memory _users) {\n        for (uint256 i = 0; i < _users.length; i++) {\n            users[i] = _users[i];\n            emit UserAdded(users[i].userId, users[i].email, users[i].company);\n        }\n        userCount = _users.length;\n    }\n\n    function getUser(uint256 _userId) public view returns (uint256 userId, string memory email, uint256 company) {\n        User storage user = users[_userId];\n        return (user.userId, user.email, user.company);\n    }\n\n    function getUserCount() public view returns (uint256) {\n        return userCount;\n    }\n}",
  "sourcePath": "/Users/abhayrathi/Desktop/Developer/capstone_proj/blockchain-node/contracts/Users.sol",
  "compiler": {
    "name": "solc",
    "version": "0.8.17+commit.8df45f5f.Emscripten.clang"
  },
  "schemaVersion": "3.4.16",
  "updatedAt": "2024-05-08T14:04:17.820Z",
  "devdoc": {
    "kind": "dev",
    "methods": {},
    "version": 1
  },
  "userdoc": {
    "kind": "user",
    "methods": {},
    "version": 1
  }
}