{
  "contractName": "UserManager",
  "abi": [
    {
      "anonymous": false,
      "inputs": [
        {
          "indexed": false,
          "internalType": "uint256",
          "name": "id",
          "type": "uint256"
        },
        {
          "components": [
            {
              "internalType": "uint256",
              "name": "id",
              "type": "uint256"
            },
            {
              "internalType": "string",
              "name": "email",
              "type": "string"
            }
          ],
          "indexed": false,
          "internalType": "struct UserManager.User",
          "name": "user",
          "type": "tuple"
        },
        {
          "indexed": false,
          "internalType": "uint256[]",
          "name": "friends",
          "type": "uint256[]"
        },
        {
          "indexed": false,
          "internalType": "string",
          "name": "img",
          "type": "string"
        },
        {
          "indexed": false,
          "internalType": "uint256",
          "name": "company",
          "type": "uint256"
        },
        {
          "indexed": false,
          "internalType": "uint256[]",
          "name": "projects",
          "type": "uint256[]"
        }
      ],
      "name": "UserProfileAdded",
      "type": "event"
    },
    {
      "inputs": [],
      "name": "profileCount",
      "outputs": [
        {
          "internalType": "uint256",
          "name": "",
          "type": "uint256"
        }
      ],
      "stateMutability": "view",
      "type": "function",
      "constant": true
    },
    {
      "inputs": [
        {
          "internalType": "uint256",
          "name": "",
          "type": "uint256"
        }
      ],
      "name": "userProfiles",
      "outputs": [
        {
          "internalType": "uint256",
          "name": "id",
          "type": "uint256"
        },
        {
          "components": [
            {
              "internalType": "uint256",
              "name": "id",
              "type": "uint256"
            },
            {
              "internalType": "string",
              "name": "email",
              "type": "string"
            }
          ],
          "internalType": "struct UserManager.User",
          "name": "user",
          "type": "tuple"
        },
        {
          "internalType": "string",
          "name": "img",
          "type": "string"
        },
        {
          "internalType": "uint256",
          "name": "company",
          "type": "uint256"
        }
      ],
      "stateMutability": "view",
      "type": "function",
      "constant": true
    },
    {
      "inputs": [
        {
          "internalType": "string",
          "name": "_email",
          "type": "string"
        },
        {
          "internalType": "uint256[]",
          "name": "_friends",
          "type": "uint256[]"
        },
        {
          "internalType": "string",
          "name": "_img",
          "type": "string"
        },
        {
          "internalType": "uint256",
          "name": "_company",
          "type": "uint256"
        },
        {
          "internalType": "uint256[]",
          "name": "_projects",
          "type": "uint256[]"
        }
      ],
      "name": "addUserProfile",
      "outputs": [],
      "stateMutability": "nonpayable",
      "type": "function"
    },
    {
      "inputs": [
        {
          "internalType": "uint256",
          "name": "_id",
          "type": "uint256"
        }
      ],
      "name": "getUserProfile",
      "outputs": [
        {
          "components": [
            {
              "internalType": "uint256",
              "name": "id",
              "type": "uint256"
            },
            {
              "components": [
                {
                  "internalType": "uint256",
                  "name": "id",
                  "type": "uint256"
                },
                {
                  "internalType": "string",
                  "name": "email",
                  "type": "string"
                }
              ],
              "internalType": "struct UserManager.User",
              "name": "user",
              "type": "tuple"
            },
            {
              "internalType": "uint256[]",
              "name": "friends",
              "type": "uint256[]"
            },
            {
              "internalType": "string",
              "name": "img",
              "type": "string"
            },
            {
              "internalType": "uint256",
              "name": "company",
              "type": "uint256"
            },
            {
              "internalType": "uint256[]",
              "name": "projects",
              "type": "uint256[]"
            }
          ],
          "internalType": "struct UserManager.UserProfile",
          "name": "",
          "type": "tuple"
        }
      ],
      "stateMutability": "view",
      "type": "function",
      "constant": true
    }
  ],
  "bytecode": "0x6080806040523461001657610abd908161001c8239f35b600080fdfe6080604052600436101561001257600080fd5b60003560e01c806318d4a12d146106fc5780631f52b76c146105635780636da95d981461006b5763ef43acef1461004857600080fd5b34610066576000366003190112610066576020600154604051908152f35b600080fd5b346100665760a0366003190112610066576004356001600160401b0381116100665761009b903690600401610965565b6024356001600160401b038111610066576100ba9036906004016109bb565b906044356001600160401b038111610066576100da903690600401610965565b916084356001600160401b038111610066576100fa9036906004016109bb565b60015493600019851461054d57600185016001556040519361011b856107ca565b600186018552602085015260405194610133866107af565b6001810186526001602087019186835285604089015283606089015260643560808901528460a0890152016000526000602052602060406000209187518355518051600184015501518051906001600160401b03821161039157819061019c6002850154610775565b601f8111610518575b50602090601f83116001146104a65760009261049b575b50508160011b916000199060031b1c19161760028201555b60408601518051906001600160401b03821161039157600160401b821161039157602090600384015483600386015580841061047b575b500160038301600052602060002060005b838110610467575050505060608601518051906001600160401b0382116103915761024a6004840154610775565b601f8111610427575b50602090601f83116001146103b257918060a094926006946000926103a7575b50508160011b916000199060031b1c19161760048201555b60808801516005820155019501518051906001600160401b03821161039157600160401b8211610391576020908754838955808410610374575b50019560005260206000209560005b828110610360577ff7ae78fd78e56b88fece82d648d75e02e3530d0123c41c223380f1d14730a403878761035b886103458961033760015495610329604051988998895260c060208a015260c0890190610911565b908782036040890152610931565b9085820360608701526108d1565b90606435608085015283820360a0850152610931565b0390a1005b60019060208351930192818a0155016102d4565b61038b908960005284846000209182019101610a21565b886102c5565b634e487b7160e01b600052604160045260246000fd5b015190508a80610273565b906004840160005260206000209160005b601f198516811061040f57509260a0949260019260069583601f198116106103f6575b505050811b01600482015561028b565b015160001960f88460031b161c191690558a80806103e6565b919260206001819286850151815501940192016103c3565b61045790600485016000526020600020601f850160051c8101916020861061045d575b601f0160051c0190610a21565b88610253565b909150819061044a565b60019060208451940193818401550161021c565b610495906003860160005284846000209182019101610a21565b8961020b565b0151905088806101bc565b9250600284016000526020600020906000935b601f19841685106104fd576001945083601f198116106104e4575b505050811b0160028201556101d4565b015160001960f88460031b161c191690558880806104d4565b818101518355602094850194600190930192909101906104b9565b61054790600286016000526020600020601f850160051c8101916020861061045d57601f0160051c0190610a21565b896101a5565b634e487b7160e01b600052601160045260246000fd5b346100665760208060031936011261006657604051600435610584826107af565b60008252604051610594816107ca565b6000815260a060609382858781950152868201528260408201528280820152600060808201520152600154811115806106f3575b156106ae57600052600082526106aa6040600020604051926105e9846107af565b815484526105f9600183016108ac565b85850190815261069361060e60038501610a38565b6040870190815261068261062460048701610806565b9185890192835261066e610646600660058a01549960808d019a8b5201610a38565b9560a08b019687526040519b8c9b818d5251908c01525160c060408c015260e08b0190610911565b9051601f1996878b840301908b0152610931565b9051848883030160808901526108d1565b925160a086015251908483030160c0850152610931565b0390f35b60405162461bcd60e51b815260048101849052601860248201527f496e76616c696420757365722070726f66696c652049442e00000000000000006044820152606490fd5b508015156105c8565b346100665760203660031901126100665760043560005260006020526040600020805461072b600183016108ac565b9161076b600561073d60048401610806565b9201549161075d6040519586958652608060208701526080860190610911565b9084820360408601526108d1565b9060608301520390f35b90600182811c921680156107a5575b602083101461078f57565b634e487b7160e01b600052602260045260246000fd5b91607f1691610784565b60c081019081106001600160401b0382111761039157604052565b604081019081106001600160401b0382111761039157604052565b90601f801991011681019081106001600160401b0382111761039157604052565b906040519182600082549261081a84610775565b9081845260019485811690816000146108895750600114610846575b5050610844925003836107e5565b565b9093915060005260209081600020936000915b81831061087157505061084493508201013880610836565b85548884018501529485019487945091830191610859565b91505061084494506020925060ff191682840152151560051b8201013880610836565b906040516108b9816107ca565b60206108cc600183958054855201610806565b910152565b919082519283825260005b8481106108fd575050826000602080949584010152601f8019910116010190565b6020818301810151848301820152016108dc565b906040602061092e938051845201519181602082015201906108d1565b90565b90815180825260208080930193019160005b828110610951575050505090565b835185529381019392810192600101610943565b81601f82011215610066578035906001600160401b0382116103915760405192610999601f8401601f1916602001856107e5565b8284526020838301011161006657816000926020809301838601378301015290565b9080601f83011215610066578135906001600160401b038211610391578160051b604051936020936109ef858401876107e5565b85528380860192820101928311610066578301905b828210610a12575050505090565b81358152908301908301610a04565b818110610a2c575050565b60008155600101610a21565b9060405191828154918282526020928383019160005283600020936000905b828210610a6d57505050610844925003836107e5565b855484526001958601958895509381019390910190610a5756fea264697066735822122002e4a26186a10490b4d612d9e894968a19a9361fb306d3518907a5a176e0aff064736f6c63430008110033",
  "immutableReferences": {},
  "source": "// SPDX-License-Identifier: MIT\npragma solidity ^0.8.0;\n\n// id , email, company, project id\n\ncontract UserManager {\n    struct User {\n        uint256 id;\n        string email;\n    }\n\n    struct UserProfile {\n        uint256 id;\n        User user;\n        uint256[] friends;\n        string img;\n        uint256 company;\n        uint256[] projects;\n    }\n\n    mapping(uint256 => UserProfile) public userProfiles;\n    uint256 public profileCount;\n\n    event UserProfileAdded(uint256 id, User user, uint256[] friends, string img, uint256 company, uint256[] projects);\n\n    function addUserProfile(\n        string memory _email,\n        uint256[] memory _friends,\n        string memory _img,\n        uint256 _company,\n        uint256[] memory _projects\n    ) public {\n        profileCount++;\n        User memory newUser = User(profileCount, _email);\n        userProfiles[profileCount] = UserProfile(profileCount, newUser, _friends, _img, _company, _projects);\n        emit UserProfileAdded(profileCount, newUser, _friends, _img, _company, _projects);\n    }\n\n    function getUserProfile(uint256 _id) public view returns (UserProfile memory) {\n        require(_id <= profileCount && _id > 0, \"Invalid user profile ID.\");\n        return userProfiles[_id];\n    }\n}",
  "sourcePath": "/Users/abhayrathi/Desktop/Developer/capstone_proj/blockchain-node/contracts/Users.sol",
  "compiler": {
    "name": "solc",
    "version": "0.8.17+commit.8df45f5f.Emscripten.clang"
  },
  "schemaVersion": "3.4.16",
  "updatedAt": "2024-05-09T09:56:03.544Z",
  "networkType": "ethereum",
  "devdoc": {
    "kind": "dev",
    "methods": {},
    "version": 1
  },
  "userdoc": {
    "kind": "user",
    "methods": {},
    "version": 1
  }
}